S01D0000626C7565746F6F74685F6869645F6B6579626F6172642E733337BD
S214000000C00A0020350F00005BF201005BF2010021
S214000010990402005BF201005BF201005BF2010052
S2140000205BF201005BF201005BF201005BF2010093
S2140000305BF201005BF2010099F001005BF2010047
S2140000405BF201005BF201005BF201005BF2010073
S2140000505BF201005BF201005BF201005BF2010063
S2140000605BF201005BF201005BF201005BF2010053
S214000070AD5D00005BF201005BF201005D0E00006A
S2140000804DF101005BF201005BF201005BF2010042
S2140000905BF20100591600005BF201005BF2010002
S2140000A05BF20100F5170000D11700005BF20100BB
S2140000B05BF20100C5CE01005BF20100C9D8010069
S2140000C037A1020033A10200BDD0010043A1020007
S2140000D03BA10200A1D801003FA1020009D90100FE
S2140000E049B201001DB4010075D901005BF20100A0
S2140000F05BF201005BF201005BF201005BF20100C3
S2140001005BF201005BF201005BF201005BF20100B2
S2140001105BF201005BF201005BF201005BF20100A2
S2140001205BF201005BF201005BF201005BF2010092
S2140001305BF201005BF201005BF201005BF2010082
S214000140002370B5404C05468AB0E36318B10088BA
S21400015023600CF017FB3D4829F09AFA3C4E3D4BC5
S214000160304633603C4B736024F0AEF800213046D6
S21400017016F03AFF32A3D3E90023A062C4E90623AF
S21400018024F0ADF8D4E90623194310434FF0FF33AB
S214000190C4E90601CDE900014FF0FF32A06A29F05C
S2140001A0E0FA02224FF0FF31A06A29F0DFFA0120C0
S2140001B00CF0F6F84FF4007300222849A06A29F0E4
S2140001C02EFBB0F5007F38D100239422CDE907330B
S2140001D009933C23CDE9033205939623A06A03A92D
S2140001E0069317F01DF835B3287C0CF091FC0546F5
S2140001F0F0B9A06A29F0F4FB0CF032FC0CF0B2F86F
S21400020020B14FF48070002109F05AFE0CF0BAF8C5
S21400021020B14FF40060002109F052FE24F023F8CC
S214000220012016F035FF0E4A0E49A06A24F04AF85F
S21400023028460AB070BDFF20D7E70725F8E700BFBD
S2140002400DD5015520000000E80F0020690345EC9D
S214000250F824002031C20000EC240020EC2200200C
S2140002606D420200AD42020010B5054C237833B94A
S214000270044B13B1044800E000BF0123237010BDF7
S2140002803812002000000000D8F9020008B5034B21
S2140002901BB10349034800E000BF08BD0000000092
S2140002A03C120020D8F90200A3F5803A704700BF40
S2140002B0174B002B08BF134B9D46FFF7F5FF002199
S2140002C08B460F461348144A121A29F087FF0E4B26
S2140002D0002B00D098470D4B002B00D098470020ED
S2140002E0002104000D000D48002802D00C4800E054
S2140002F000BF1DF083FD200029001EF0C1FE1DF08A
S21400030057FD00BF000008000000000000000000CD
S214000310C00A0020780F0020B82B00200000000044
S214000320000000000368994A23F47F4323F0070384
S214000330934273B5054600F041820DD8944A934225
S21400034000F0448102F18072934200F07181914A7C
S21400035093421ED002B070BD8F4A934200F0C8810F
S21400036002F18072934200F0CF8102F17E4202F5E4
S2140003707B029342EED1B0F80530272BEAD1C37941
S214000380012BE7D10289854B012A18BF00221A707B
S214000390E0E7834E834C30460FF042F9054608B33B
S2140003A0814920681FF0C0FE804920681FF0BCFE0F
S2140003B01EF003FF1EF002FF7D4B7E4A7E4900932F
S2140003C0206881231FF0B0FE7C492B467C4A2068BB
S2140003D01FF0AAFE284600F079FD7A4920681FF033
S2140003E0A3FEFEE7022130780FF054F9054608B365
S2140003F06D4920681FF098FE6C4920681FF094FE37
S2140004001EF0DBFE1EF0DAFE694B6A4A6A4900936C
S214000410206886231FF088FE68492B46684A2068B5
S2140004201FF082FE284600F051FD664920681FF046
S2140004307BFEFEE7A02200900346114630780FF0C0
S21400044007F9054608B3584920681FF06DFE57495E
S21400045020681FF069FE1EF0B0FE1EF0AFFE544B83
S214000460544A5549009320688F231FF05DFE534978
S2140004702B46534A20681FF057FE284600F026FDFC
S214000480504920681FF050FEFEE71EF096FE1EF054
S21400049095FE4D4920681FF047FE284603210FF0C1
S2140004A05FF9054608B3404920681FF03DFE3F4906
S2140004B020681FF039FE1EF080FE1EF07FFE3C4BCB
S2140004C03C4A3D490093206894231FF02DFE3B498B
S2140004D02B463B4A20681FF027FE284600F0F6FC15
S2140004E0384920681FF020FEFEE701200FF04CF987
S2140004F0054608B32C4920681FF016FE2B492068D5
S2140005001FF012FE1EF059FE1EF058FE284B294A18
S21400051029490093206896231FF006FE27492B469C
S214000520274A20681FF000FE284600F0CFFC254929
S21400053020681FF0F9FDFEE7022130780FF0BEF8C4
S214000540054600283FF406AF174920681FF0ECFD6B
S214000550164920681FF0E8FD1EF02FFE1EF02EFE46
S214000560134B144A1449009320689B231FF0DCFDAC
S21400057012492B46124A20681FF0D6FD284600F086
S214000580A5FC104920681FF0CFFDFEE7A000010380
S214000590A0000600A0000100A0000F03382A0020DB
S2140005A0760D0020D412002006A7020050A50200F7
S2140005B073A6020055A502005EA502006DA5020006
S2140005C06AA5020082A5020093A50200994C1EF0BF
S2140005D0F4FD1EF0F3FD984920681FF0A5FD287B6A
S2140005E00FF0E4F8054600283FF4B4AE93492068BF
S2140005F01FF09AFD924920681FF096FD1EF0DDFD63
S2140006001EF0DCFD8F4B904A904900932068A4238F
S2140006101FF08AFD8E492B468E4A20681FF084FD07
S214000620284600F053FC8C4920681FF07DFDFEE74D
S214000630804C1EF0C2FD1EF0C1FDAA8887492068C6
S2140006401FF072FD0022864E864B022130781A700B
S2140006500FF020F8054608B3784920681FF064FDBF
S214000660774920681FF060FD1EF0A7FD1EF0A6FD6E
S214000670744B754A754900932068B0231FF054FDEB
S21400068073492B46734A20681FF04EFD284600F03B
S2140006901DFC714920681FF047FDFEE702213078F7
S2140006A00FF00CF8054600283FF454AE6349206866
S2140006B01FF03AFD624920681FF036FD1EF07DFDF2
S2140006C01EF07CFD5F4B604A604900932068B523AE
S2140006D01FF02AFD5E492B465E4A20681FF024FD67
S2140006E0284600F0F3FB5C4920681FF01DFDFEE77E
S2140006F01EF063FD1EF062FD4E4B5B49186802B0AB
S214000700BDE870401FF010BD4A4C1EF056FD1EF0AE
S21400071055FDB5F80520554920681FF005FD0FF07A
S21400072057F8064608B3454920681FF0FDFC4449C3
S21400073020681FF0F9FC1EF040FD1EF03FFD414B07
S214000740414A424900932068C3231FF0EDFC40490C
S2140007503346404A20681FF0E7FC304600F0B6FB00
S2140007603D4920681FF0E0FCFEE728790EF0BAFF4E
S214000770054600283FF4EEAD304920681FF0D4FC53
S2140007802F4920681FF0D0FC1EF017FD1EF016FD46
S2140007902C4B2D4A2D4900932068C5231FF0C4FC1E
S2140007A02B492B462B4A20681FF0BEFC284600F03B
S2140007B08DFB294920681FF0B7FCFEE7294B1B7804
S2140007C0012B7FF4C7AD0023294A0821136053602C
S2140007D0284B27201B78174C93700EF0ABFF05466E
S2140007E008B3164920681FF09FFC154920681FF0C3
S2140007F09BFC1EF0E2FC1EF0E1FC124B124A134971
S21400080000932068E1231FF08FFC11492B46114A04
S21400081020681FF089FC284600F058FB0E49206827
S2140008201FF082FCFEE71EF0C8FC1EF0C7FC124953
S214000830206864E7D4120020B7A5020006A70200CD
S21400084050A5020073A6020055A502005EA5020090
S2140008506DA502006AA5020082A50200CBA50200D3
S214000860760D0020382A0020F0A5020005A602001A
S214000870302A00202E2A002024A60200144B10B591
S214000880834212D11EF0FEFC124A01281249134C74
S21400089013780FD1124AD35C0B701EF08EFC1EF03C
S2140008A08DFC104920681FF03FFCBDE81040012079
S2140008B00EF092BE192B0EBF00230133DBB213706D
S2140008C000230B701EF079FC1EF078FC0649E9E761
S2140008D048AB02002F2A00202E2A0020D412002027
S2140008E082A602003AA6020055A60200002370B5B2
S2140008F0254C1946206892B0022280681DF046FCFE
S214000900002320680222194640681DF03FFC01AA19
S21400091015461E4B03F11806144618685968083326
S21400092003C4B3422246F7D119889B782180A3706E
S214000930284629F071FC164C0246294620681FF00E
S214000940A5FB206803F0D4FE08AA1546114B03F158
S2140009502006144618685968083303C4B342224672
S214000960F7D1998818689B792060A371A1802846E2
S21400097029F052FC2946024600201FF087FB064855
S2140009801DF0ECFB12B070BDEC0B0020EDA60200D3
S214000990CC0A002008A702009CA6020038B5134C1B
S2140009A0237823B112481DF03DFB002323701DF071
S2140009B013FA024640B200280CDD0E4C0D282378B0
S2140009C001D00A2807D100250B490C48CD541DF04C
S2140009D029FB257038BD4E2B9FBF0749CA540133EB
S2140009E02370BDE838401DF035BB00BF770D0020F2
S2140009F040A70200892A0020392A00202FA70200DB
S214000A0030B503687F4A23F47F4323F007039342FD
S214000A1089B040F0F4800822002112207A4B0EF0B4
S214000A2073FE044610B3794D794928681FF07CFBA5
S214000A30784928681FF078FB1EF0BFFB1EF0BEFB4F
S214000A40754B764A009376493D2328681FF06CFB69
S214000A5074492346744A28681FF066FB204600F057
S214000A6035FA724928681FF05FFBFEE7014603224D
S214000A7014206F4B0EF048FE044610B3634D6449D5
S214000A8028681FF051FB634928681FF04DFB1EF0D5
S214000A9094FB1EF093FB604B604A009360494B2327
S214000AA028681FF041FB5F4923465F4A28681FF00D
S214000AB03BFB204600F00AFA5C4928681FF034FB2E
S214000AC0FEE70146052216205A4B0EF01DFE05468F
S214000AD010B34E4C4E4920681FF026FB4D49206847
S214000AE01FF022FB1EF069FB1EF068FB4A4B4B4AC8
S214000AF000934B49592320681FF016FB49492B46A3
S214000B00494A20681FF010FB284600F0DFF94749E5
S214000B1020681FF009FBFEE70DF10F0104A80EF098
S214000B2063FE044610B3394D394928681FF0FCFAB5
S214000B30384928681FF0F8FA1EF03FFB1EF03EFB0F
S214000B40354B364A00933649642328681FF0ECFA82
S214000B5034492346344A28681FF0E6FA204600F057
S214000B60B5F9324928681FF0DFFAFEE79DF8153020
S214000B7001468DF818309DF8143008228DF819308B
S214000B809DF8133018208DF81A30FF238DF81B308F
S214000B90FE238DF81C309DF812308DF81D309DF820
S214000BA011308DF81E309DF810308DF81F3006ABD2
S214000BB00EF0AAFD054610B3144C154920681FF028
S214000BC0B3FA144920681FF0AFFA1EF0F6FA1EF0CA
S214000BD0F5FA114B114A00931149742320681FF04F
S214000BE0A3FA10492B46104A20681FF09DFA2846A3
S214000BF000F06CF90D4920681FF096FAFEE709B080
S214000C0030BD00BFA000010043A70200D4120020A0
S214000C1006A7020050A502007EA702004CA702000D
S214000C205EA502006DA502006AA5020082A502006C
S214000C3074A7020078A7020010B5234C01F0C2F892
S214000C4001F0EAFA236F23F0070343F00303236758
S214000C501EF0C3FC1D4B00209B6A9B075EBF012253
S214000C601B4B9A62D4F8203123F0030343F00203AF
S214000C70C4F82031D4F8243123F0070343F00203EC
S214000C80C4F82431D4F8403123F0030343F00203C0
S214000C90C4F84031D4F8603123F0030343F0020374
S214000CA0C4F86031D4F8403223F0030343F0020363
S214000CB0C4F84032D4F8003223F0070343F00203AE
S214000CC0C4F8003210BD00BF0080005000C00050C5
S214000CD000E0005008B501F099FE01280ED1134B34
S214000CE004205A6E4FF480231149520358BF114A0C
S214000CF04B6601F51041086258BF536603F0DAFCF4
S214000D001EF068FA03F064FC03F0BEFC03F082FCFD
S214000D101FF0B6F9FFF790FF03F06AFC1EF051FAD9
S214000D2000F07AFDBDE8084004F032B900800050BB
S214000D300090005000A0005030B5224D95B00DAC8C
S214000D400FCD0FC495E80700032384E807008DF84D
S214000D504D3029231C4A1D49CDE902231C4B102483
S214000D60CDE904134FF480732246002109A80693A8
S214000D7029F034FA4FF4A020164B07A9CDE9070353
S214000D800F238DF82430144B0DAA0A9320230B93BF
S214000D9001238DF83130114B1148009302AB8DF8CA
S214000DA0254003F0BBFE04469DF832304FF4E13098
S214000DB0002B0CBF032100211EF040FA204615B080
S214000DC030BD00BF2CAB0200000006500005000638
S214000DD000080007240006508A2A0020541200202B
S214000DE0B0120020831E012B10B512D8012910D88E
S214000DF0114B04221B6905210020C3F3401301F0A8
S214000E0049FC0E4B1B681868A8B1BDE81040436A41
S214000E1018478B1E012B0CD801280CD8BDE81040B3
S214000E200022054B05211B691046C3F3401301F051
S214000E3031BC0129E5D910BD00C00350C80A002006
S214000E4008B50449044804F067F9BDE80840FFF710
S214000E5073BF00BFC00A0020A812002001481FF080
S214000E60D1BA00BFB0120020014B1A6A18681047AA
S214000E70B012002001481EF000BA00BF48AB0200C6
S214000E80012208B5074B1A700022074B1A7004227D
S214000E90064B1A701F22064B1A7003F035FC054BE2
S214000EA0186008BD780D0020AA2A0020790D0020C1
S214000EB07A0D0020D4120020024B034918681FF058
S214000EC033B900BFD412002060AB020070B50C4CE2
S214000ED00C49064620681FF027F903F015FC054666
S214000EE0206803F005FC3046FFF7E6FF284603F0CF
S214000EF0FFFB20680449BDE870401FF015B900BF2D
S214000F00D412002062AB020064AB020007B50820D2
S214000F101EF02BFA02238DF80030054B684601932D
S214000F201EF05CF9082003B05DF804EB1EF029BA49
S214000F30006A181008B500F02DF8124B12498B42C3
S214000F4012D30020114B12498B4218D3FFF7B0F989
S214000F50186850F82240586840F8224001329868D5
S214000F608242F5D30C33EAE70022F8E71C6844F81F
S214000F70220001325C68A242F8D30833E4E700227C
S214000F80F8E700BFE0F90200ECF90200ECF9020015
S214000F90ECF902004FF400414FF0FF30124B134AB9
S214000FA010B59A60D3F8882042F47002C3F88820FF
S214000FB00F4A916601F1884101F5005210664FF61E
S214000FC0DF7050660220C3F8D000BFF34F8FBFF328
S214000FD06F8F08244FF440330648C0F88041D36032
S214000FE004600B6110BD00BF00ED00E000000000D3
S214000FF00090005000E100E0014B1868704700BF09
S214001000D40A0020084B1B6F03F00703022B04D002
S214001010032B05D0012B05D0FEE7044B186870475C
S214001020034BFBE70348704700800050D40A0020BB
S214001030D80A0020002D310108B5FFF7E3FF054B65
S2140010401B6FC3F303330133B0FBF3F0024B18609E
S21400105008BD00BF00800050D00A0020004870473E
S21400106000B4C404014B1868704700BFD80A0020BB
S214001070054B1860054B1B6F03F00703032B01D1CC
S214001080FFF7DABF704700BFD80A00200080005084
S21400109000487047002D3101014B1868704700BFAB
S2140010A0DC0A002005490A681318054883428CBFED
S2140010B04FF0FF320B601046704700BFE00A00207A
S2140010C00080002037B50468012105463A2000F06C
S2140010D09DFD002301226179207901F0DBFA1422BC
S2140010E03023217913FB012303F1A04303F570336A
S2140010F01B686279D340DB4303F001032370A379B6
S214001100022B0ED100F00EFB2A460749607900F04C
S21400111033FB0123024661792079CDE9003301F0E3
S21400112061FA002003B030BD8FF2010008B501213E
S2140011303A2000F06BFD032101230422002001F079
S214001140A9FA00201EF086FA0122214B4FF46070A7
S214001150C3F844241EF079F91E4B00F5D520D3F8C9
S214001160F02000F2FC4042F00102C3F8F020D3F871
S214001170FC2042F08072C3F8FC20174AA3F55D43BA
S2140011801A60164B0222B0FBF3F0154B01381861BB
S214001190C3F8F0204FF48072C3F804234FF0604386
S2140011A0104A0020C3F8B02F0F4AC3F8802ED3F899
S2140011B0002E42F48072C3F8002EFF2283F820200F
S2140011C0D3F8002E22F48072C3F8002E08BD00BFAC
S2140011D000D0035000ED00E0FF030040F8590D007A
S2140011E0000004E055CEACC5090001004FF0604396
S2140011F0D3F8802E30B5D20715D501240B4D844088
S214001200D5F8FC2042F08072C5F8FC20D3F8002EFA
S2140012102243C3F8002E53F82020002AF0D003F80B
S2140012202010002030BD1120FCE700BF00ED00E0DC
S2140012302DE9F04F9A46564B85B01B7806460F466A
S2140012401546DDF83C909DF844B0DDF85080002B44
S21400125000F08D80072A00F28C800E9B002B00F099
S2140012608880B9F1000F00F08480129BB3F5006F00
S2140012707FDC012802D1109B002B7AD0454B03EB74
S21400128005131B7B002B76D0434C102200216846AA
S21400129028F0A4FF04EB45141022002F59D139463C
S2140012A0204628F09BFF43F210036380BBF1000F3B
S2140012B003D1E37843F00303E370374A0E9B02EB57
S2140012C0451CCCE90193129B6901013BC3F30A005C
S2140012D09DF84C30012E03F003034FEA836343EA84
S2140012E0001E53582D48CDF800A000EA03004EEA31
S2140012F00003535041D113230CF1100ECCF80C30E0
S2140013009CE80F008EE80F006FF00301DCF81C204D
S214001310109B61F39F02012FCCF81C20CCF81430F0
S21400132003D1CCF81890CCF804300027194A2901CC
S21400133002EB051342F80180159A28465A60694662
S21400134022469F605E7301F045FA384605B0BDE858
S214001350F08F0021204628F041FF4FF4447363804D
S214001360BBF1000FA9D1E37843F03003A4E70C48A3
S214001370ECE70C48EAE70C48E8E7B8F1000FD4D1F0
S2140013809CF8023068F304138CF80230CDE700BFF7
S214001390AB2A0020D8120020581300200F80FFF33D
S2140013A0028000F0018000F0078000F038B5124B94
S2140013B005461B78DBB1E0B11EF02BF90F4A00237F
S2140013C01146147B54B92B6001251A0101EB031357
S2140013D01D738C501EF023F9204638BD0133082BB0
S2140013E002F11002EDD11EF01AF90548F5E705489E
S2140013F0F3E70548F1E700BFAB2A0020D81200202B
S214001400048000F0028000F0018000F013B51EF0AA
S21400141000F900230B4A147B7CB90133082B02F138
S2140014201002F8D1019001F077F9074B01981C7073
S2140014301EF0F5F8204602B010BD1EF0F0F8034886
S214001440F9E700BFD8120020AB2A0020058000F084
S2140014500D4B10B51B78044693B1072812D81EF022
S214001460D8F80A4B03EB04131A7B2AB100241C732A
S2140014701EF0D5F8204610BD1EF0D1F80448FAE755
S2140014800448F8E70448F6E7AB2A0020D812002004
S214001490068000F0028000F0018000F0154B13B5C6
S2140014A01868002301908DF804301EF0B2F8124B35
S2140014B01C7824B11EF0B3F8104802B010BD01220B
S2140014C01A701EF0ACF80E4B01A81C731C7783F83C
S2140014D02C4083F83C4083F84C4083F85C4083F80B
S2140014E06C4083F87C4008238DF8073001F040F903
S2140014F02046E2E767AB0200AB2A0020038000F03C
S214001500D81200200A4A08B512785AB107280BD814
S214001510084A02EB00131B7B43B1002101F01AF9C5
S214001520002008BD0448FCE70448FAE70448F8E74A
S214001530AB2A0020D8120020028000F0018000F0C4
S214001540078000F00A4A08B512785AB107280BD867
S214001550084A02EB00131B7B43B1012101F0FAF8A5
S214001560002008BD0448FCE70448FAE70448F8E70A
S214001570AB2A0020D8120020028000F0018000F084
S214001580078000F00A4A08B5127852B107280AD830
S214001590084A02EB00131B7B3BB101F069F90020FF
S2140015A008BD0548FCE70548FAE70548F8E700BF28
S2140015B0AB2A0020D8120020028000F0018000F044
S2140015C0078000F00D4B1B7893B1072812D889B11D
S2140015D00B4B03EB00131B7B73B10A4B1A6D0123F5
S2140015E003FA00F010401ABF00200B700870704716
S2140015F0054870470548704705487047AB2A0020E5
S214001600D812002000000450028000F0018000F094
S214001610078000F00B4A10B512780C4662B1072816
S2140016200CD859B1084A02EB00131B7B43B101F0FA
S21400163031F92070002010BD0448FCE70448FAE7A2
S2140016400448F8E7AB2A0020D8120020028000F0F9
S214001650018000F0078000F0204B2DE9F0471F6D59
S2140016605A6D1F4C174010D54FF000411D4A1165AA
S214001670D868C0F304200301E35804EB00125BB300
S214001680BDE8F04700215268184701260025DFF81C
S2140016905480DFF85490374217D02368C8F850605B
S2140016A09BB1A168284601316268A1609847637BB8
S2140016B0012B0AD148B909EB45131A7B60F34102A6
S2140016C01A731A7F60F341021A770135082D4FEA24
S2140016D0460604F11004DED1BDE8F0870000045091
S2140016E0D8120020002004505813002070B504467D
S2140016F001250B4E04B970BD94FAA4F0B0FA80F040
S21400170005FA00F306EB001224EA03045368002BE4
S214001710F0D0117B11B191689847EBE79847E9E75D
S2140017205814002008B5192000F0A2FD28B14FF08B
S2140017300072074BC3F880211A601A2000F098FD4B
S21400174028B14FF08062024BC3F880211A6008BDB2
S21400175000E100E038B505460C461DF05AFF0022B1
S214001760044B03EB05135C601A73BDE838401DF0AC
S21400177056BF00BF58140020F8B505460F4616465B
S2140017801DF047FF104B05F0FC02D3F8241400238D
S214001790EC1804F00304144321FA04FC1CF0010FB7
S2140017A007D00133042BF3D1FF241DF038FF204669
S2140017B0F8BDFF2CF9D00122044B03EB0413C3E958
S2140017C001761A73F1E700BF00C0035058140020DA
S2140017D0074BD3F82404D3F8202403F50053104015
S2140017E000F0553020F05020C3F82004FFF77EBFED
S2140017F000C00350074BD3F82404D3F8202403F585
S2140018000053104000F0AA3020F0A020C3F82004B7
S214001810FFF76CBF00C00350024B1968024B1868F4
S21400182014F0F6BFE80A0020E40A002037B592005C
S21400183004460D46019228F083FE431C0BD060B987
S21400184029462046019A28F092FC0028044808BF42
S214001850002003B030BD0348FBE70348F9E700BFAC
S21400186010E000F021E000F024E000F010B504469F
S21400187028F05EFE431C10D088B901F0CFF823464E
S21400188020F003002044984201D1002010BD53F8F8
S214001890042B0132F7D00348F8E70348F6E703487D
S2140018A0F4E700BF0EE000F021E000F024E000F0D6
S2140018B008B51DF0A7FE014B186008BD981C002057
S2140018C0014B18681DF0A2BE981C0020044BD3F8EC
S2140018D08420D206FBD4D3F88400C0F3811070476E
S2140018E00040005038B5104B0546D3F820310C4662
S2140018F003F00303022B0BD0032B0DD0012B0FD1CB
S214001900FFF77AFB052305B1286004B1236038BDD4
S214001910FFF7A8FB0323F6E7FFF7BAFB0223F2E77D
S21400192001230020EFE700BF0080005073B50D468E
S21400193000210E4B0191D3F88041064604F00304C3
S214001940012C09D0022C0CD00C460EB1019B336042
S21400195005B12C6002B070BD01A8FFF7C3FF0F24CD
S214001960F3E7FFF795FB0190EFE700BF008000501C
S21400197038B5184B0546D3F824010C4600F007008E
S214001980062805D8DFE800F0230B131B1F0F1700EF
S2140019900023184605B1286004B1236038BDFFF760
S2140019A02BFB0523F6E7FFF727FB0623F2E7FFF7F7
S2140019B059FB0323EEE7FFF755FB0423EAE7FFF79F
S2140019C067FB0223E6E71DF049FC0723E2E7012355
S2140019D0E0E700BF0080005038B5104B0546D3F84E
S2140019E040310C4603F00303022B0BD0032B0DD023
S2140019F0012B0FD11DF034FC092305B1286004B17A
S214001A00236038BDFFF748FB0823F6E71DF02BFCE4
S214001A100B23F2E701230020EFE700BF0080005011
S214001A2038B5144B0546D3F800020C4600F0070004
S214001A30042804D8DFE800F01B0A0E121600002364
S214001A40184605B1286004B1236038BD1DF008FCB7
S214001A500923F6E7FFF720FB0823F2E71DF003FC57
S214001A600B23EEE7FFF7E8FA0E23800AE9E70123E7
S214001A70E7E700BF0080005038B5104B0546D3F8A6
S214001A8040320C4603F00303022B0BD0032B0DD081
S214001A90012B0FD11DF0E4FB092305B1286004B12A
S214001AA0236038BDFFF7F8FA0823F6E71DF0DBFBE6
S214001AB00B23F2E700231846EFE700BF0080005034
S214001AC038B5104B0546D3F860310C4603F00303D7
S214001AD0022B0BD0032B0DD0012B0FD11DF0C0FB1A
S214001AE0092305B1286004B1236038BDFFF7D4FA96
S214001AF00823F6E71DF0B7FB0B23F2E701230020CF
S214001B00EFE700BF0080005010B40D4C0B46D4F831
S214001B10204204F00304012C0AD0022C0CD008B199
S214001B20002101600BB100221A605DF8044B70477B
S214001B305DF8044BFFF7D6BE5DF8044BFFF74CBFCD
S214001B400080005038B50C4605461DF05BFD064B80
S214001B509A6A82EA040101EA050454409C62BDE8E0
S214001B6038401DF053BD00BF00C00050B0F5207FC8
S214001B701FD009D8B0F5007F15D003D868B1B0F5EE
S214001B80C07F0AD000200CE0B0F5607FFAD10B4B86
S214001B90D3F88000C0F3011003E0084B186FC0F3C1
S214001BA0033001307047054BD3F89000C0F3046053
S214001BB0F7E7024B186FC0F38020F2E70080005072
S214001BC04FF400320E4B014610B500209A66FFF720
S214001BD0CDFF41F6713248430A490B4B88428CBF11
S214001BE04FF480100020DC69DA639A6822F4401211
S214001BF002439A60E20344BF0022DA6310BD00BFCE
S214001C0000900050005A620200000350420910B5CE
S214001C1010D0012A10D00B4B0B4C022A18BF2346BB
S214001C2000F01F0051B103F58053012202FA00F0C4
S214001C30186010BD1346F3E7044BF1E703F50053B5
S214001C40F3E700BF68800050608200506480005058
S214001C5008B580201DF0F9FB034B98429EBF4FF459
S214001C608032024B1A6708BD005A620200A000507C
S214001C701FB50023B0F5807F019377D028D8382889
S214001C8000F094800BD82438092810D809280ED8DC
S214001C90DFE800F0676767670D0D620D377D522835
S214001CA05FD008D83D283BD03E2800F084800198BD
S214001CB005B05DF804FB8028F9D1414B1B6F03F09B
S214001CC00703013B032BF2D8DFE803F044413F6CE7
S214001CD0B0F5D06F5BD019D8B0F5A06F66D00AD833
S214001CE0B0F5806F3DD0B0F5906FE0D1002001A92F
S214001CF0FFF73EFEDBE7B0F5B06F2DD0B0F5C06F56
S214001D00D5D1002001A9FFF767FED0E7B0F5006F38
S214001D10ECD00AD8B0F5E06F4DD0B0F5F06FC6D174
S214001D20002001A9FFF7CCFEC1E7B0F5086FBED1D1
S214001D30234BD3F8003103F00303022B2CD0032BE4
S214001D402ED0012B30D1FFF78DF9032300E00523B9
S214001D500193ACE70223FBE7002001A9FFF7E6FDAD
S214001D60A5E7002001A9FFF7BDFDA0E702934FF00D
S214001D70E0231B695B0705D5FFF75EF90C23039389
S214001D80039BE5E703A902A8FFF726FEF8E7002075
S214001D9001A9FFF745FE8AE7FFF77EF90823D7E794
S214001DA01DF05CFA0723D3E70123D1E7002001A941
S214001DB0FFF7AAFE7BE7002001A9FFF75DFE76E7A6
S214001DC0008000504FF40022034B5A66012203F5B0
S214001DD080439A62704700BF0090005008B5FFF736
S214001DE047FF082811D00938012811D84FF40012EF
S214001DF0094B4FF6FF705A6603F5D8335B6A13F04B
S214001E00010F18BF4FF4FA7008BD044B1888FBE7A3
S214001E104FF6FF70F8E700BF00900050640D0020FA
S214001E2070B504468020FFF723FF032800F0828069
S214001E304FF40022444B02215A6645F60E03434AED
S214001E40C2F88030424B9962012103F580539962B3
S214001E50936DD903FCD4D4E900131B0543EA016350
S214001E60E17B94F822500B43217B94F8236043EAED
S214001E700143617B43EA0133A17B43EA811313618B
S214001E809169D4E904031B0643EA806301F000412C
S214001E900B43A17EE07E0B43217E43EA0143617E35
S214001EA043EA01239361E369126A002B0CBF002109
S214001EB0082122F00D0242EA030242EA8002234B86
S214001EC042EA01021A6294F820204FEA421232D106
S214001ED0986A94F8211020F0330042EA0112024377
S214001EE042F001029A621B4A996D32EA0101FBD167
S214001EF0022217498A621A659A6D5200FCD4186944
S214001F00A26820F4700040EA02504FF000421861C8
S214001F100F4B9A611DB9022203F580539A6216B9D7
S214001F2001220D4B9A6294F824301BB1074B0B4AE2
S214001F30C3F8802070BD996A21F0330131430A430B
S214001F4042EA4502EEE700BF0090005000C0005095
S214001F5000D000500300014000E00050F1A7FFFF52
S214001F601E4B13B5996A9A6D12F4803F18BF012470
S214001F701B4A18BF9462022494629B6DDB0303D550
S214001F80164A936D9C07FCD50222154B134C1A6516
S214001F90A36D5B00FCD4134BA26993F9003022F4C6
S214001FA07F020344000222F47F4280B283F30803D8
S214001FB0104340EA0340A06102200191FFF7C2FDF2
S214001FC0A36D019913F4803F05D0012002B0BDE84F
S214001FD01040FFF7B7BD02B010BD00BF00C00050F4
S214001FE000D00050AC2A0020014B93F90000704747
S214001FF0AC2A002001221548154B816A9A62826D30
S21400200002F00302032AFAD102229A621A650F4BE3
S2140020109A6D5200FCD40F4A986D32EA0000FBD14C
S21400202001220B4B1A65A3F580539A6D9007FCD4DA
S2140020309A6D9207FCD50222054B1A65034A936DEA
S2140020409B07FCD50320FFF77DBD00BF00C00050F6
S21400205000D0005003000100F0B5D0E901434FF472
S21400206080061A4A4178057856664FF4D1560227FC
S21400207002F5B8325662164E4F2977604FF00107C8
S21400208028BF4F2106F5805677601669F603FCD404
S21400209041EA052151611B01417B43EA04230B43BE
S2140020A0017B43EA41039360C37B817B1B0143EAC8
S2140020B04113417C0B43017C43EA41035360837C1C
S2140020C013B16FF4D1535362F0BD00BF00900050BF
S2140020D000100250014B1880704700BF640D0020AE
S2140020E0014B1880704700BF620D00204FF40012AD
S2140020F008B5184B5A660223174A5360936813F4C0
S2140021008033FBD1012822D1FEF7ACFF134B984257
S21400211015D003F5122303F5F863984213D0104B3D
S21400212000EB8002400AB3FBF0F0520A0A4BDA6278
S214002130012218635A620022074B5A6008BD45F612
S2140021407A10084AF2E745F61A00074AEEE75362A5
S214002150F1E700BF009000500040025000F0490236
S21400216064666666D8B80500BBCF0500B0F5207F6C
S21400217010B50C4642D008D8B0F5007F33D003D84F
S21400218088B1B0F5C07F0ED010BDB0F5607FFBD132
S2140021901F4B013CD3F8801021F0300141EA0414B3
S2140021A0C3F88040F0E71DF048F91DF011FA4FF42F
S2140021B08031184A164B1167196F013C21F47041A3
S2140021C041EA04341C67FEF737FF0446FFF77EFB40
S2140021D0C0F1020120461DF0F5F900F02DF8BDE82B
S2140021E01040FFF735BD0A4B013CD3F8901021F0A4
S2140021F0F85141EA0464C3F89040C5E7044B013C3B
S214002200196F21F4806141EA84241C67BCE700BF93
S214002210008000500090005008B50121022000F018
S214002220E5F81DF00AF91DF0D3F94FF48032014BA2
S2140022301A6708BD0090005008B54FF4C0701DF036
S21400224004F9BDE80840044988428CBF02210121F8
S2140022504FF42070FFF78ABF80F0FA02034B5868ED
S214002260C0F30800003818BF0120704700ED00E0FA
S214002270054B420953F8223000F01F0023FA00F005
S214002280C04300F00100704700E100E0194B10B5B4
S2140022901B6873B3184A5268012A2AD0174A80204E
S2140022A0C2F80031FFF7E4FC05281FD14FF4C070D8
S2140022B0FFF75CFC0128044604D102214FF4C070ED
S2140022C0FFF754FF07220E4B1A610122A3F5805335
S2140022D05A60094A1369DB07FCD5012C09D121464F
S2140022E0BDE810404FF4C070FFF740BF0122054B19
S2140022F05A6010BD4C1D002000C0015000800050E8
S21400230000E0015000D0015000224FF40031074B8E
S2140023101A60074A516602F598325268012A02BFCF
S214002320044AD2F800211A60704700BF4C1D0020F6
S2140023300090005000800050044A4178536F23F408
S214002340407343EA01235367704700BF00400050C4
S21400235010B5044608B1FFF7D7FF0E4A136943F0DD
S2140023600403136103F0F6F81DF05CF91DF04AF95A
S21400237028F0D6F81DF04AF91DF055F903F00CF9CF
S2140023801CB1BDE81040FFF781BFBDE81040FEF766
S21400239053BE00BF00ED00E010B5044608B1FFF7DD
S2140023A0B3FF0C4A136943F00403136103F0D2F839
S2140023B01DF028F928F0B4F81DF028F903F0ECF821
S2140023C01CB1BDE81040FFF761BFBDE81040FEF746
S2140023D033BE00BF00ED00E0034A0179D36E23F060
S2140023E030030B43D366704700400050F8B50446F0
S2140023F01C4BD3F88420D106FBD4D3F88430C3F327
S21400240081139C422CD0FEF7FDFD012C064602D11E
S21400241021461DF0D7F81DF0F5F84FF00072124B6C
S21400242007465A6620461DF003F94FF480630D4DAB
S214002430621E93402B676B6E9A0103D4D5F88430E6
S2140024409B060AD538461DF0E1F8022C08D1304626
S214002450BDE8F84000211DF0B5B8D5F88430EAE7AD
S214002460F8BD00BF004000500060005007B518B926
S2140024700191FEF7C7FD0199064B1B7843B1064B49
S214002480984205D8012003B05DF804EBFFF7AEBF15
S2140024900220F8E7AD2A0020005A62020278034BB9
S2140024A0012100201A70FFF7E1BF00BFAD2A00200F
S2140024B04FF0004238B5264B26495A6601224A603C
S2140024C04AF6CD3103F50B235D6C1964154030BB1D
S2140024D09968C9070BD4002401221F4B5A6015B116
S2140024E01E4B1F4A1A6427F056F9204638BD1A4973
S2140024F08A601C4AD96ACC0705D4904201D10724C9
S214002500EAE70130F6E79042E5D1F8E70132DC6A07
S21400251014F0080406D08A42F8D10724DFE7002228
S2140025201049F4E78A42F8D020220B4B0B495A6236
S2140025300122A3F580539A6023460A4A486A800619
S21400254003D49342E9D00133F8E79342C7D1E4E7D6
S214002550009000500050095000600950004009509B
S2140025603254FFFF40420F004FF0004238B5194B7F
S214002570194C5A66012203F50C235A604AF6CD33ED
S214002580656C23644378154093401343134AD36322
S214002590A368827823F0740343EA0213C278002A01
S2140025A014BF042200221343A3600279837943EA0E
S2140025B0022323614279C37943EA022363610078E8
S2140025C0FFF776FF0DB1064B236427F0E4F80120F1
S2140025D038BD00BF00900050004009500040005039
S2140025E03254FFFF072AF7B501F0030614461F46CC
S2140025F04FF003012CD89500A94000FA05F21C48BC
S21400260001911DF016F801991A4806FA05F21DF018
S21400261010F8194B19499DF82000002F08BF1946DD
S214002620012303FA04F40C60154B1649002808BF72
S2140026300B461C60144B9DF82400C3F82044103150
S214002640A3F6DC33002808BF0B461C6003B0F0BDC1
S214002650A2F10805AD00A94000FA05F20B48019169
S2140026601CF0E7FF01990A4806FA05F2CFE700BF1B
S21400267000C4035008C4035010E4035010D40350A1
S21400268014D4035014E4035000E0035004C4035071
S2140026900CC40350F8B504460D461F4616464AB10C
S2140026A001238B403021194A01FB0022FFB141F281
S2140026B01001535004EB4403072D4FF00F014FEA6F
S2140026C0031317D8A80006FA00F2814010481844F1
S2140026D01CF0AFFF56B9012130230C4801FA05F56E
S2140026E003FB040077B141F21003C550F8BD42F277
S2140026F01001DEE7A5F10800800006FA00F281402E
S2140027000448E4E742F21003EFE700BF00C00350BE
S21400271004C003500CC003504FF400120B4B10B50E
S214002720C3F88020BFF34F8FBFF36F8F0024FF22C4
S214002730074B21465C6520209A625C60FFF766FACC
S2140027402146BDE810402120FFF760BA00E100E016
S21400275000000450044A054B002918BF1346012206
S21400276002FA00F0186070474020045040100450F1
S21400277010B5012104462020FFF748FA0121212048
S214002780FFF744FA0122114B5A60227812069A602B
S2140027906178A27842EA01429A61FF229A62002298
S2140027A09A631A644FF000425A654FF0FF324FF4B6
S2140027B0001103F500531A65054AC2F88011E37844
S2140027C01B01DBB282F81533116010BD0000045007
S2140027D000E100E02DE9F04101250C46C3B2DFF828
S2140027E088E0D1F800809D408F7ACB7A94F80DC0AF
S2140027F0097BCEF850500EF5005E4EF820804FF064
S214002800300E184E1B050EFB006043EA074343EAF2
S214002810415322F00302C0F860C0C36502671CF093
S214002820F8FE736D2B437365237A13B1336C2B4319
S2140028303364637A13B1B36B2B43B3632279A37902
S21400284043EA0243084A93616179E37943EA014324
S21400285006498B61034B55639D64BDE8F0411CF04F
S214002860DEBE00BF000004500020045000100450DC
S21400287010B50124C0B284401CF0CBFE044B5A6D48
S21400288022EA04025A659C62BDE810401CF0C7BEEE
S2140028900000045010B50124C0B284401CF0B9FEFC
S2140028A0074BDA6A224209D15B6B34EA03030CBF9A
S2140028B0012400241CF0B3FE204610BD0024F9E7D6
S2140028C0000004504FF40032054B9A6641F6713210
S2140028D003F51C33DA63012203F50053DA60704710
S2140028E00090005041F671320121064BDA6303F581
S2140028F00052D1600022DA634FF40032A3F5183399
S2140029009A66704700000350CB784A7810B55B0192
S2140029100C7843EA82030A79234343EA02130C2223
S214002920424302F1B0421363012C02BF8A78024B85
S21400293043F8202010BD00BFE880035008B54FF0D4
S214002940B0435A6802B960B15B680BB11CF083FEF5
S2140029504FF0B04130B10120074B58601CF07BFEB1
S214002960C86008BD1CF077FE0223CB601CF073FE27
S2140029700122024B5A60F4E700100058002000586D
S2140029804FF0B0435B6870B50BB11CF064FE0121DC
S214002990104B4578596083780679002BC37814BFAE
S2140029A002240024002B14BF042200224379DB00FB
S2140029B043EA06132B43234313434FF0B04293607E
S2140029C0054B59600378002B14BF0B460223D360D7
S2140029D070BD00BF00200058001000584FF4803231
S2140029E0064B5A6603F5E6235B69C3F385128270CD
S2140029F003F03F021B0B42700370704700900050BC
S214002A00014B986CD96C70470080E00F024B186839
S214002A10C0F30740704700BF0080E00F0120034B63
S214002A209B680A3303F01F03984070470080E00F4E
S214002A3070B5054616461C4621B94FF420701CF0AA
S214002A4004FD0146402C1BD003D8DCB1202C1BD043
S214002A5070BD602CFCD1042303FB06F2560806EB7F
S214002A604113B3FBF2F3094A203B02EAC303AA6808
S214002A7022F06002AA60AA681443AC60EB61E7E744
S214002A800623E9E71023E7E70823E5E7F8FF7F00DA
S214002A90012200F5805310B55A6040F6AA6341F251
S214002AA00502436100230E498360C365C26000F5DA
S214002AB000520361C361C36491640A498365884216
S214002AC002D0094CA04207D18842036502D0064BCB
S214002AD0984201D1002343650123536010BD00BF17
S214002AE0FFFF010000C005500000065070B50D46FF
S214002AF0FFF7CEFF012300F580567360AB7C0446DB
S214002B001BB1836843F080438360EB7C5BB1354A3E
S214002B102B7D944245D1A2F51032C2F88C31E36D7C
S214002B2043F08003E3652A8A6B7B20461343EA89D9
S214002B301343E3602B7BD5E90112FFF779FF6B7D2A
S214002B401BB1A36843F48033A360AB7D1BB1A368BD
S214002B5043F40043A360EB7D2A7E1B07120502F4B4
S214002B60E00203F0E0431343A365697E1D4A8B1E13
S214002B70012B1D4B1FD894421BD002F58042944275
S214002B800CBF01224FF0FF3203EB4213022041F24A
S214002B901C620329985020D10423F3652B786361C7
S214002BA070BD124A944204BFA2F52032C2F89C318E
S214002BB0B5E70022E8E794420DD00C4A94420CBFD9
S214002BC001224FF0FF3203EB4213022042F21C6256
S214002BD001299850DFE70022F5E7042204F50053A8
S214002BE0DA65DBE700C0055000C003500000065061
S214002BF038B50446054D26F0F5FD0FCC0FC594E814
S214002C00030085E80300002038BD00BF501D0020EB
S214002C1047F6FF739A42F0B566D0012966D8344D60
S214002C20CF0015F8313005EBC100012B847813D1A5
S214002C300025C3781B1B9D4202D3E018C0B2F0BD2E
S214002C40591B4668A3EB510136F911609642D4BF72
S214002C500D4601F1FF33EEE740680028EFD0B0F9EB
S214002C600030934204DBB0F902309342B8BF1346FB
S214002C7082883D44FF2A19BFC8214FF0280CB0F9BE
S214002C800610B0F908C0A1EB03020CBF012600260F
S214002C9092FBFCF26D78324412B2954201DD002AB6
S214002CA001DA6A1E12B24FF47A7700EBC206F18898
S214002CB0B668013213FB016112B221EAE1715C31A0
S214002CC09542B1FBF7F104DD00EBC206B6888E42F2
S214002CD0EBD200EBC20232F8040C884228BF08464A
S214002CE0A04238BF2046A9E7FF20A8E70020A6E7B5
S214002CF0501D00200129F0B553D82B4800EBC10425
S214002D0010F83110636801290FD1E078A47890425A
S214002D1094BFC4EB0001C4EB0201001BCAB282429E
S214002D20C8BF002233F91200F0BD002B39D0A178BD
S214002D30914202D3B3F90200F6E7E178B3F9000056
S214002D409142F1D999886478A1F1FF06013C71425D
S214002D5003F10405E4B2714103F10C071FFA82FC8B
S214002D60CEB2B44216D805EBC1014FF47A756A4369
S214002D70B1F902404968521A04EBD47102EB6102C1
S214002D8092FBF4F29042CFDBB3F902009042CBDC28
S214002D9010B2C9E737F831E04E1CE645E3D33146BA
S214002DA0DEE70248C0E700BF501D00200080FFFF9E
S214002DB008B50448FFF71CFFBDE80840012026F0D0
S214002DC015BD00BF20B4020000487047660D002005
S214002DD07FB50222084B0949CDE901234FF0007365
S214002DE0CDE90313052301A94FF0FF30059326F024
S214002DF033FD07B05DF804FB006A1800000204000B
S214002E001B0603F0706300F00F000902034301F491
S214002E107061120402F470220B431343014A1360DC
S214002E20704700BF0020025C60B5054619B1013945
S214002E30B1F5806F10D2094EF06810F48030FBD1E7
S214002E4043EA0121120741EA050302F080521343C8
S214002E5043F00043736060BD0120FCE70020025C85
S214002E600122054B9A60DA68D203FCD4D86820F0B9
S214002E700F000004000C70470020025C014B18682D
S214002E80704700BF0040025C014B5868704700BFA7
S214002E900010025C014B186B704700BF0010025C0C
S214002EA0014B1868704700BF0010025C014B986029
S214002EB0704700BF0010025C014B1864704700BFEB
S214002EC00010025C014B5864704700BF0010025CA3
S214002ED0014B5863704700BF0010025C0022014B94
S214002EE01A6070470010025C024A136843F0010340
S214002EF0136070470010025C43F20402014B1A6034
S214002F00704700BF0010025C024A136843F03003AB
S214002F10136070470010025C044B1A6842F480721B
S214002F201A601A6822F480721A6070470010025CF9
S214002F30024A136843F48063136070470010025C13
S214002F40034A136823F4702343EA00401060704776
S214002F500010025C044B1A6902605A6942609A6962
S214002F608260DB69C36070470010025C0268044B35
S214002F701A6142685A6182689A61C268DA6170476B
S214002F800010025C024B1A6BD207FCD41862704722
S214002F900010025C024B186B00F00E00704700BF7A
S214002FA00010025C82B01FB507930A9B04AC8B42EC
S214002FB028BF0B4604E907001048D100079948BF10
S214002FC003330160099948BF23F0030323F07043DD
S214002FD001F0E041194341F000518160002102F008
S214002FE0E042019C134343F00053C16004618361D7
S214002FF0416304B0BDE8104002B070470000025CB8
S2140030003F22034B1A631022DA6103229A63704749
S2140030100000025C024AD36B9B07FCD4704700BFDB
S2140030200000025C034B986A10F0240018BF0420CE
S214003030704700BF0000025C08B5FFF7F3FF064BC1
S214003040DB6B23F47F4323F0EF0303431EBF012211
S214003050024BC3F8FC2F08BD0000025C00F0FF3FE7
S214003060032208B5054B186019615A63FFF7C8FFBD
S214003070FFF7D0FFBDE80840FFF7DEBF0000025CA8
S21400308042680346182A10B50AD0202A1DD0102AF6
S2140030902BD1174AD2F80424D4010AD4012013E015
S2140030A0134AD2F804249001F8D50A6842F00802C0
S2140030B00A6010481A6882424FF000000ED10A6873
S2140030C042F040020A60586010BD094AD2F8042453
S2140030D05201E3D50A6842F00402E9E7064CA24230
S2140030E0F2D10A6842F08002ECE70720ECE700BF66
S2140030F00000025CAE2A0020AF2A00200B4607B56F
S2140031000749D1F80414C90708D5002100920246E1
S214003110084600F05BF803B05DF804FB0120FAE710
S2140031200000025C1346064AD2F80424D20504D5F1
S2140031300A46014600201CF0ABBC0120704700BFC9
S2140031400000025C13B5084CD4F80444E40508D526
S214003150009313460A460146002000F061F802B0CC
S21400316010BD0120FBE700BF0000025C13B5084C51
S214003170D4F80444E40508D5009313460A460146ED
S214003180002000F071F802B010BD0120FBE700BF80
S2140031900000025C70B504460D4616468CB00A4A1E
S2140031A009AB07CA83E807001A462146CDE905633E
S2140031B0CDE90333CDE9013300954FF480301CF0A0
S2140031C08BFB0CB070BD00BF90AB0200F0B51C4688
S2140031D05B6815468DB01A07129E1AD1CBB172687D
S2140031E0934216D10C4B0D4A53F8217009AB07CA0F
S2140031F083E807001A462946CDE90533CDE90333AF
S214003200CDE90163009447F480701CF065FB0DB0B7
S214003210F0BD0720FBE700BF9CAB020090AB0200AE
S214003220F0B516465A688DB0102A0D46129F15D175
S2140032307A68102A12D10A4A09AC07CA84E807003D
S21400324022462946CDE90547CDE90344CDE90144A8
S214003250044800961CF040FB0DB0F0BD0720FBE7CD
S21400326090AB020030000100F0B516465A688DB0EB
S214003270102A0D46129F15D17A68102A12D10A4AD2
S21400328009AC07CA84E8070022462946CDE905743A
S214003290CDE90344CDE90144044800961CF01CFB2C
S2140032A00DB0F0BD0720FBE790AB02001000010058
S2140032B082B070B586B0149D03AE202D86E8070058
S2140032C00B9359D805EB85038B4203D006236B433B
S2140032D08B4253D10C9BAB4250D10F9BB3EB450FA7
S2140032E04CD1129A934249D1012229462220159B9D
S2140032F0FFF79AFD044630BB034606220E210C203B
S214003300FFF77EFD0123CDE900332B4696E8070044
S2140033101CF07FFA0E230BAA009307CA2B461CF05C
S214003320C3F90C23164C00930EAA2B4607CA1CF0B2
S214003330EBF9636823F07F0343F026036360FFF72F
S2140033408FFD30B10624204606B0BDE8704002B0BE
S2140033507047636823F07F0343F022036360FFF740
S2140033607FFD04460028EDD1062311AA009307CA64
S2140033702B461CF0FCF9E6E70124E4E70724E2E725
S2140033800020025C70B598B0002843D02C4C08ADE5
S2140033900FCC0FC50FCC0FC50FCC0FC594E80F0090
S2140033A085E80F006D4604AE04F1100320340FCB01
S2140033B085E80F0094E80F0086E80F00FFF7ACFDE5
S2140033C00420FFF7BDFDFFF797FD3046FFF7CEFD63
S2140033D0002408AE56F8040B0134FFF7D3FD102C7A
S2140033E0F8D1FFF751FD0328FBD90024FFF776FD3F
S2140033F02646FFF743FD55F8043B01365840042E99
S21400340044EA0004F5D12CB1012206200D4B1A70B7
S21400341018B070BDFFF780FD0820FFF747FD0020BD
S214003420FFF74AFD0720FFF74DFD4FF40070FFF74A
S2140034304FFD0820FFF784FDFFF756FD0020E7E765
S21400344078AC0200B12A002008B5FFF765FD01221E
S214003450014B1A7008BD00BFB02A002030B589B0F5
S21400346005AC84E80700FFF715FDC30501D5FFF797
S214003470EBFF0A4D2B781BB11CF085FC00232B704C
S214003480074B069AD3E901018DE8030002921B68F8
S21400349094E807001CF080FB09B030BDB02A00207D
S2140034A0D8AC02001FB51CF06EFC044630B10122F9
S2140034B006240D4B1A70204604B010BDFFF7DEFC44
S2140034C00090FFF7DBFC0190FFF7D8FC0290FFF7B7
S2140034D0D5FC03906846FFF749FDFFF7B5FFFFF7F9
S2140034E013FDFFF725FDE6E7B12A002005289ABF61
S2140034F0014B185C00207047E4AC020030B5154B59
S21400350087B00293144B0390049346F611030D46BE
S214003510059300F06DF91428044616D168461CF091
S214003520EAFC4FF0A843032202A95A6319601D6102
S2140035309A63DA6B9207FCD1142C02D168461CF011
S214003540E8FC00F089F9044601E00028E9D02046AE
S21400355007B030BD681D0020040000202DE9F04FA4
S214003560B1B005468C46E9466E4F3B9EDDF8F8E066
S214003570409C07F1100AC846386879680837A8E8FA
S21400358003005745C146F6D10EEB0208C8F1000904
S21400359009F00F09002E00F0AF80774207F00F0702
S2140035A00121DDF8FCB0C4F1100ACDF810B0059189
S2140035B044F0005106914FEA0A2101F4F85141F017
S2140035C02101079106B96B460893002D40F09680BE
S2140035D0002C00F0938004AB0993002E00F090803E
S2140035E046F000530A93002D40F08D80002C14BF47
S2140035F00123212343EA07230B9308A942F0005333
S214003600CDF830C03D980D910E934FEA092343F054
S21400361041030F93109002B10CA9002A16BF002296
S2140036204FF00052412342EA0E0211911292139378
S2140036303C9B3D4A149310AB15933C4B00211693CC
S21400364040F6110317933A4B002D08BF1346189304
S21400365014AB1993374B10221A9311231B931CABF0
S214003660184626F0BBFD01221D924AF080421E92AB
S21400367000220346239205B9EB46102C08BF01230F
S2140036800DF1900A102200215046CDF880B021930B
S214003690229426F0A3FD002C37D020AB00212593E2
S2140036A08F4218BF534647F0804226923A9A2CA87B
S2140036B08A422892299313460CBF4FF080430B464C
S2140036C0102233432B912A9326F088FDFEB95346E9
S2140036D0C8442D932CA948F0804318A82E93FFF7D2
S2140036E00DFF30B92DB90346A34212D1002818BFEA
S2140036F02C2031B0BDE8F08F102751E701236BE78F
S21400370047F000536EE7212374E70123C6E728AB92
S214003710DEE703F1C0026A4412F8C02C01331043FE
S214003720E2E700BFEAAC0200FCAC0200100000209A
S21400373000AD020004000020F0B5C0299FB0249E12
S2140037404FD0B1F5807F04D0802941D029201FB00A
S214003750F0BD40F2344440F21445002E08BF2C461B
S21400376021271025019401240296039404950597B9
S214003770259F069706B102AC079401240895099484
S2140037800A9221220B940C950D92174A0AAC0E92BF
S214003790164A0F94109242F6110211921293139445
S2140037A01495159201AA1692CBB112AB1793042367
S2140037B018931123199316AB1A901B9340F6110316
S2140037C0C9081C911AA806A91D93FFF797FEBEE725
S2140037D0002E14BF4FF486644FF48264C0E70EAB2D
S2140037E0E4E70F20B3E700BF04AD020010000010AE
S2140037F038B5164B5A6E42F004025A66D3F8802249
S21400380042F00102C3F88022114B5B68C3F3080341
S21400381043B14FF0A842D36B13F0430FFBD11424EF
S214003820204638BD4FF0A843DC6B14F04304FBD1B0
S214003830084D2B681BB90421284602F0B3FD2B68FF
S214003840013343F000432B60EAE700BF00800050DE
S21400385000ED00E0681D0020014B00205B6870470B
S21400386000ED00E04FF40052034B00209A6603225E
S214003870C3F86022704700BF0090005008B5FFF7FD
S2140038800FFBC30708D5FFF785FB062804D00A28D8
S214003890F5D1FFF7D9FDF2E74FF40052034B0020B5
S2140038A09A660322C3F8602208BD00BF00A000503D
S2140038B01FB54FF40052164B9A660322C3F86022D7
S2140038C0FFF7EEFAC30710D401201CF069FA0028AF
S2140038D014BF6FF092040024FFF7D0FF00280CBF3F
S2140038E020466FF0920004B010BD102200216846FA
S2140038F026F074FC6846FFF72DFBDDE90032134323
S214003900029A1343039A1343DED00024E4E700BF71
S21400391000900050012300F01F02A0F50620094980
S214003920A0F550604009934051F820201A4341F812
S2140039302020054951F8202022EA030341F82030D0
S214003940704700BF6C1D0020801D00200121A0F5DF
S21400395006230F4AA3F550635B0900F01F0001FA27
S21400396000F052F8231008430A4942F82300D1E930
S2140039700030034488680344C868096903445B1838
S21400398002BFC2E90033C2E902331361704700BFC9
S214003990801D00206C1D00202DE9F04FA9B002927A
S2140039A01D46DDE9326704460822CDE903014140A1
S2140039B021FA02F34B40980702F1080218BF9B0059
S2140039C0202A1C44F4D18123B4FBF3F303EBC31386
S2140039D0E41A7A4B04F506241B7804F55064002B91
S2140039E040D1FDF719FF014620B16FF0910029B0D4
S2140039F0BDE8F08F4022059008A826F0EFFB402295
S214003A00059918A826F0EAFBDFF8C891DFF8C8A1E8
S214003A104B4603F10F0B102208A9DAF80000CDF888
S214003A2000B0059325F07BFC00220146059B09F1BA
S214003A3010090DF1200891424CD1CDF800B01022AB
S214003A40DAF8000018A925F073FC4FF0000B0346C7
S214003A500DF160085B4549D1594B9945D8D10122F3
S214003A60564B1A704FF081084FF00009DFF868A136
S214003A70A4F506235349A3F55062520951F82210C3
S214003A8004F01F0C21FA0CF1C90744D44E4951F832
S214003A90220020FA0CF010F0010030D0B9F1000F2F
S214003AA008BFA146A3F6FF448123B4FBF3F303EB60
S214003AB0C313E41A04F50624B8F1010804F55064AB
S214003AC0D6D1029BEBB1B9F1000F1AD0349BC3F8E4
S214003AD000906DE058F8040BCDE906230591FFF73A
S214003AE019FF069A079B05990132A4E758F8040BBC
S214003AF005930BF1010BFFF729FF059BAAE7029B35
S214003B0013B96FF08B0072E7349BB9F1000F4ED0FB
S214003B10C3F800906BE70EB1002333600FB10023AB
S214003B203B604FF0100B00232A462146DAF80000CF
S214003B30CDF800B012F0DAFF08BB0EB1C6F800B040
S214003B402B68224A934224D166B15FB13B46214698
S214003B50DAF8000018AA13F01DF880B93B6832683E
S214003B609B1A3B60D5E90223DDE90310834208BFB8
S214003B708A4216D0A4F50624A4F6FF4494E7144B14
S214003B80984206D01233984203D0133B9842E9D0AD
S214003B902BE72146DAF8000013F042F80028E1D0BF
S214003BA0AFE7029B13B16B68012B03D0349B1C60FC
S214003BB000201CE76FF0840019E700BFB22A00203F
S214003BC0007108006C1D0020801D0020105D175E2F
S214003BD0FFDF00F0006D0800E40A00202DE9F04F3A
S214003BE087B08246894698461646DDF840B02AB128
S214003BF0002B4ED040F26C739A424DD8BBF1010FA9
S214003C004DD8002406F110073946012005941CF013
S214003C1002FD0546002845D021463A4626F0DEFA43
S214003C2005ABCDE9014300942B4601225046494698
S214003C30FFF7B2FE044680B110F18C0F08BF6FF09C
S214003C408D043A460021284626F0C8FA28461CF07D
S214003C50F3FC204607B0BDE8F08F144BC5E902A977
S214003C602B60C5F804B02EB13246414605F110006F
S214003C7026F08DFA0E483B462A460599006812F053
S214003C809DFE18B90598FFF745FEDAE76FF0910438
S214003C90D7E76FF08604DCE76FF09104D9E76FF0A2
S214003CA08504D6E76FF08C04D3E700BF105D175E7F
S214003CB0E40A00202DE9F0438DB08146DDE9147852
S214003CC00C4615461E469BB1B8F1000F05D16FF0A5
S214003CD0860420460DB0BDE8F083002FF7D0B7F17C
S214003CE0005FF4D3C3F1005303F500439F42EED8C0
S214003CF01022002108A826F071FA002207AB0293D2
S214003D0005AB019306AB21460093484608ABCDE9C8
S214003D100522FFF741FE04460028DAD10599DEB1F8
S214003D20A94203D80029D2D115B1D0E70029FBD08B
S214003D30491BB14228BF3146069B0948C8F8001007
S214003D4000913A46079900682B4412F0CFFE0028EF
S214003D5018BF6FF09104BCE7A942E9D2B7E700BFED
S214003D60E40A002030B58DB00C460546102200212E
S214003D7008A826F033FA002207AB029305AB01939E
S214003D8006AB21460093284608ABCDE90522FFF78F
S214003D9003FE0446D0B9099B012B1AD0104B079995
S214003DA0186812F03DFFB8B9012207980D49A0F532
S214003DB00623A3F550635B0900F01F05AA4051F8DF
S214003DC023506A4041F82320FFF7C0FD20460DB07F
S214003DD030BD6FF08404F9E76FF09104F6E700BF9A
S214003DE0E40A00206C1D00202DE9F0438BB0174636
S214003DF0DDE91545DDE913269C46DDE917388946D9
S214003E0021B96FF086000BB0BDE8F083002FF8D024
S214003E100EB9002CF5D1129909B9002AF1D10DB9C5
S214003E20002BEED1B8F1000FEBD0254A944544D1D3
S214003E300288B2F5105F40D14288B7EBD20FE0D3CC
S214003E4022F04001802902D0B2F5807FD9D11CB97A
S214003E502046C8F80040D6E7AE421CD2321995423A
S214003E6019D29C42CDD831462246284626F09CF9E7
S214003E702E4614F00F03C4D1CDE90197CDE90336E1
S214003E80CDE90543CDE907540993FFF7EBFC38B1BC
S214003E906FF09200B7E79C42EBD96FF08900B2E76B
S214003EA007AA04A901A8FFF729F90546FFF7E6FCCB
S214003EB02843EDD1C8F80040A5E76FF08500A2E7DB
S214003EC0004440042DE9F04FA9B0834617469A46B1
S214003ED00E46DDF8C890DDF8D88029B96FF0860365
S214003EE0184629B0BDE8F08F002AF7D0B9F1000FC8
S214003EF0F4D0349B002BF1D0B8F1000FEED00024A4
S214003F00434B0CAD93E8070085E807003C222146AA
S214003F1019A8189426F062F93288718802F4E040F5
S214003F20B0F5804FDAD03B4E3B480BEA060646F02B
S214003F301066864265D1B1F5807F62D147F21211D4
S214003F408A425ED106203549BAF11F0F0A69CB684E
S214003F5000FB02F209680B93CDE90C120E94BDD952
S214003F60339B402BBAD9359B1F2B4DD909F1010243
S214003F7020261292402299F800300F97042B18AF93
S214003F80CDE91324CDE91572109611941794A5D196
S214003F90FFF768FC03460028A2D10B9B15AACDE9C3
S214003FA0086305AB07CA83E8070002AB12AA07CA74
S214003FB083E80700DDE910018DE803000F9B95E814
S214003FC00700FFF775F90546FFF758FC55EA0003AA
S214003FD084D13D46349A20AE2C4603CCB4421060C1
S214003FE05160254602F10802F6D100221046B918A3
S214003FF00132412A03D12022C8F8002070E7087059
S214004000F5E76FF085036BE76FF0890368E700BF9D
S21400401090AB02000000FFF60000020964AC02004C
S214004020F0B50F461D468DB000285AD0002958D04E
S214004030002A56D0002B54D00388B0F802C0194688
S21400404003F44F44B4F5824F18BF002321F0FF015C
S214004050B1F5E24FDBB203D06FF085000DB0F0BDD6
S214004060122B01D0172BF7D10CF10701B2EBD10FB1
S2140040704FEAD10638D31F4A06ACBCF5807F07CA84
S21400408084E80700E8D1122B07D11B4B1A691B687E
S2140040901344CDE90632002308930023CDE90976C0
S2140040A00B93FFF705FC0028D8D1FFF7DBFB0028B1
S2140040B0D4D1124B1149059302AB049083E8030058
S2140040C00CAB13E903008DE80300099B94E8070096
S2140040D01BF0E8FC0446FFF7D1FB204307D12E6017
S2140040E0BCE76FF08600B9E76FF08900B6E76FF0BF
S2140040F09200B3E790AB020064AC0200C1FD010081
S2140041002DE9F0438FB01D46DDE916C6002863D0C2
S214004110002961D0002A5FD0002B5DD0BCF1000FD3
S2140041205AD0002E58D00388B0F802E01C4603F49C
S2140041304F47B7F5824F18BF002324F0FF00B0F5B5
S214004140824FDBB24ED0B7F5824F4BD1122B01D047
S214004150172B47D10EF10700B2EBD00F4FEAD0086D
S2140041603AD34FEA4802571C674538D8BEF5807FD9
S21400417038D1122B18BF4FF000094FF0000308BFCC
S2140041801B4CCDE9081805F1010114BF4C46D4F8C4
S2140041900C90CDE90B120A930D93FFF763FBC0B9A1
S2140041A0CDE9058902AB08AA07CA83E807000EAB6B
S2140041B013E903008DE803000B9B94E807001BF04F
S2140041C090FC0446FFF75AFB20430ED104232B70C5
S2140041D037600FB0BDE8F0836FF08600F9E76FF048
S2140041E08900F6E76FF08500F3E76FF09200F0E7DE
S2140041F064AC02002DE9F04389B00D4614461F4614
S214004200DDF8488020B96FF0860009B0BDE8F0837D
S2140042100029F8D0002AF6D0B8F1000FF3D00288B3
S21400422002F44F43B3F5824F0CBF13460023DBB2B4
S21400423002D06FF08500E8E7122B01D0172BF8D1DB
S21400424022F0FF02B2F5E24F40D14288C8F80020C3
S214004250002A36D1E200C8F80020D8F80020B2F5CF
S214004260807FE6D1122B09BF384B00221A681B69E3
S21400427005EB040608BFD21800231846224412F89D
S21400428001CD16F8011D0843B1EB0C010CBF4FF031
S214004290FF3C4FF0000CB5420CEA030343EA01036F
S2140042A0EDD10028AFD0002BADDA109B9C4249D848
S2140042B022462946384625F06AFF119B00201C60DE
S2140042C0A3E70732B4EBD20FC7D09CE72A78042ABC
S2140042D099D1621ED2005208B2F5807FC8F800203D
S2140042E0A7D1122B05F1010318BF4FF000094FF0BC
S2140042F0400205934FF000030ABF144E4E46D6F810
S2140043000C90CDE90623FFF7ADFA00287FF47DAFC9
S214004310CDF80C90D8F800300733DB08029308ABD2
S21400432013E903008DE80300059B96E807001BF0E1
S21400433081FC0646FFF7A2FA00287FF466AF002E3F
S214004340B3D060E76FF089005FE700BF64AC02009F
S2140043502DE9F04F8FB00546DDE918A993461E46B5
S214004360DDF868801C9F09B300B3B8F1000F1DD0BC
S214004370E7B1BAF1000F02D1B9F1000F16D1284B00
S21400438026F47E129A4247D128461BF0F3FD0446D7
S214004390B0BB6B88BBEBD30F4FEAD30206D316F441
S2140043A07C1FC6F3054504D0102D03D96FF0860494
S2140043B026E010251B9B9D422BD80023CDE9011239
S2140043C01022CDE905930DF12809CDE9033ACDE990
S2140043D00823CDF81C90FFF745FA044680B907AAD3
S2140043E004A901A8FEF79EFE0646FFF747FA044614
S2140043F056B958B92A464946404625F0C8FE3D609B
S21400440020460FB0BDE8F08F6FF0920400233B60AB
S214004410F6E76FF08904F3E76FF08504F0E700BF76
S2140044200002C0032DE9F041069F0C4616460546DD
S21400443010B309B302B9FBB96288B3EBD20F4FEAE7
S214004440D20819D34C220021284625F0C7FE0D4B72
S21400445027F47E129A4212D120461BF08BFD0446AA
S21400446038B942463146281D25F091FEC5F824800D
S2140044702F602046BDE8F0816FF08604F9E76FF004
S2140044808504F6E70002C0032DE9F0410E46144607
S2140044900546002840D000293ED012B90020BDE8CD
S2140044A0F08103681F4823F47E13834237D1AF6B35
S2140044B0E7B1C7F1100807F128004245284404D2A6
S2140044C025F065FE3C44AC63E8E7424625F05FFE17
S2140044D01022103C3C19AA63E0D0284605F12801BA
S2140044E01BF064FD0028DAD14644A863102C0CD9D2
S2140044F0671E27F00F073A46314628461BF056FD42
S2140045000028CCD1E41BC9D03E442246314605F1F2
S214004510280025F03CFED6E76FF08600BFE76FF078
S2140045208800BCE70002C0032DE9F04388461F461A
S21400453005468BB070B169B163B10368234923F4B3
S2140045407E1088423ED113F47C1FC3F3054604D088
S214004550102E03D96FF086042AE0102696422BD838
S214004560FFF780F9044618BBAB6B05F12802CDE9CE
S21400457001236B6A2A1DCDE904231023CDE90830F8
S21400458007AB1A460390069005F13C0901A904A85A
S214004590CDF81C90FEF7EAFD0546FFF76FF90446D6
S2140045A06DB928B932464946404625F0F0FD3E60D2
S2140045B020460BB0BDE8F0836FF08904F8E76FF093
S2140045C09204F5E76FF08504F2E700BF0002C0032F
S2140045D007B56B46054A1068516803C36846FDF781
S2140045E0C3FF002003B05DF804FB00BF08AD020067
S2140045F013B50024064A6846536F43F00103536719
S21400460000948DF80440FDF7E7FE204602B010BD8A
S2140046100040005030B58BB06C46174D0FCD0FC420
S2140046200FCD0FC495E8030084E80300134BD3F8BE
S2140046304C21120318D4D3F85041E4B28DF8194037
S214004640FDF7D2FC204480F308008DF818000C48D3
S214004650FCF70EFD6846FDF7E3FB4FF4FA70FDF736
S2140046603FFD00200BB030BD064B1C884FF6FF7395
S2140046709C4208BF8C24E1E710AD02000080E00FEA
S21400468000F049020001E00F30B5094D87B001ACDB
S2140046900FCD0FC42B6801A8236019238DF80530B1
S2140046A0FDF7DAFC6420FDF715FD002007B030BDED
S2140046B038AD02006FF00402502110B50A480B4CCA
S2140046C012F0800FD3B21BBF03F00F03043BA318F6
S2140046D01B1802F101020CBF83F800131976402A5A
S2140046E0EED1002010BD00BF00ED00E000E100E0CC
S2140046F010B504461AF086FF024B1C601AF086FFBF
S214004700002010BD941D002010B51AF07BFF034B4F
S2140047101C681AF07BFF204610BD00BF941D0020C9
S214004720034B0222186800238068194619F02EBD34
S214004730EC0B002030B51446054687B010461BF03B
S2140047403FFD6369024683423CBFD4E903315B18F0
S2140047501B1A7BB10F49284603910021CDE9013190
S214004760012304940093D4E900131AF017FE0020E6
S21400477007B030BD0122627694F82D20002AF6D0CC
S21400478084F835301321E369204698472046636A4B
S2140047909847ECE7354700002DE9F04788B0044617
S2140047A08846174699461AF034FF8246002F7AD07C
S2140047B0237E03F0FF02002B00F0A28020461BF0B1
S2140047C0FFFC6669B04205D1637ED4E90352154406
S2140047D0AD1B01E0F9D9851BBD4228BF3D461AF046
S2140047E018FF94F82D300646002B6DD12A46404619
S2140047F0616925F0CCFC63692F462B44636121E098
S214004800037803F0FD0111295BD1216B814205D1AC
S214004810A3F111014B424B4184F83430013F6369E8
S214004820216B01328B4203F1010308BF23636361EE
S21400483095426069E4D1D4E90323216B134499427D
S21400484000D122630025D4E9032361691344994209
S21400485008BF6261207A6576FCF754FE20461BF09E
S214004860AFFC6369834232D1257694F82D30E56833
S214004870656103B125632046636A9847214B2A4643
S2140048800393002302932369216801930123207A6E
S2140048900093049463681AF081FD207AFCF752FEB8
S2140048A030461AF0BCFE5046C9F800701AF0B7FE43
S2140048B0D9F80030002B0CBF1B20002008B0BDE844
S2140048C0F08708F8013BAAE72F460022B0E701234D
S2140048D0207A23760DF11E01FCF79CFE9DF81E3013
S2140048E0002BDAD00DF11F01207AFCF76BFE9DF845
S2140048F01F100029D1D12246207AFFF71BFFCCE7F4
S2140049001746D0E735470000002808DB0123420998
S21400491000F01F0003FA00F0014B43F82200704736
S21400492000E100E0002809DB0122430900F01F0037
S21400493002FA00F0024A603342F82300704700BFD4
S21400494000E100E070B504460568FFF7DDFE84422E
S21400495002D10020FFF7CCFE95F93600FFF7E2FF04
S21400496095F93630002B0DDB01215A0903F01F03A1
S21400497001FA03F31849203241F82230BFF34F8F73
S214004980BFF36F8F95F93700FFF7CCFF95F93730F7
S214004990002B0DDB01215A0903F01F0301FA03F374
S2140049A00D49203241F82230BFF34F8FBFF36F8F8F
S2140049B0287AFCF7E7FD287AFCF74AFDFCF726FD87
S2140049C000232846C4E90033C4E90433A360AB6A75
S2140049D0BDE87040184700BF00E100E02DE9F04157
S2140049E00C461546064686B04022002120461F4645
S2140049F025F0F4FB95E8030000232A692376EB688C
S214004A0084E80300C4E904232A7DE36084F82C20AC
S214004A10AA7D2363012384F8343084F835300C9B58
S214004A2084F82D2023620D9BE76163620E9BA362D0
S214004A302B7A84F836306B7A84F837302D4B346016
S214004A4073602D4BB3602D4B33612D4B73612D4B33
S214004A50F360FCF723FD38B12B4B984204D01024AA
S214004A60204606B0BDE8F081002104F10800FCF7FE
S214004A709DFC07460028F2D14FF00108234B336215
S214004A80234B84F83C80B361224BF3619DF84030A1
S214004A9084F8390084F83B309DF83C30204684F892
S214004AA03A30697D84F838801BF09AFB95F9090046
S214004AB0FFF738FF95F90900FFF726FF164B049419
S214004AC0CDE902732369CDE900836368E268216853
S214004AD0207A1AF063FC04460028C0D195F9080035
S214004AE0FFF720FF95F90800FFF70EFF3046FFF7A7
S214004AF0FFFDB5E73102020099470000AF01020052
S214004B00B501020045490000038000F0850102005F
S214004B10E1010200BB010200354700002DE9F0412B
S214004B2001271C46594B86B00293594B0C9D0193A6
S214004B30584B904600930A46CDE903772946564BD4
S214004B40FFF74CFF064600287BD1236839462B64C6
S214004B5063683A206B64637A85F84930237A85F86F
S214004B604830E37A85F84B30A37A85F84A30637B81
S214004B7085F84D30237B85F84C30E37B85F84F3045
S214004B80A37B85F84E30FDF741F83B460422617A58
S214004B90207AFDF77FFD3B460222E17AA07AFDF7F8
S214004BA079FD39466068FDF731F888F800604146BF
S214004BB02068FDF79BFF1422637C5B0103F1A04392
S214004BC003F57033C3F81C26617A227A42EA014262
S214004BD0C3F83426E17AA27A42EA0142C3F82C26C8
S214004BE085F8506098F81930032B4DD8DFE803F0AD
S214004BF01A022D470123002785F850300023022291
S214004C00617B207BFDF746FD637B227B617C42EA6D
S214004C100342224B49015A500422236803F580536D
S214004C20DA65AFB9237A2A6C85F84830637A0521AD
S214004C3085F84930D36C206843F00403D3641AF037
S214004C4012FD304606B0BDE8F081022385F85030EC
S214004C5000230422E17BA07BFDF71CFD022741F226
S214004C601C61627C0E4B03EB42104750E07BA17B3D
S214004C70B13241EA004103EB42139960D2E70323C5
S214004C80012785F85030B9E72326DAE75B030200F0
S214004C904F030200E7030200DB03020024D60350A2
S214004CA000C00350BFF35F8F074B5A6A22F480326E
S214004CB05A62D3F8942022F00102C3F89420BFF37E
S214004CC04F8FBFF36F8F704700ED00E070B526483A
S214004CD0264CFFF7E7FF844208BF4FF08043244A84
S214004CE018BF20F01F03D2F8C01018BF203B21F0D9
S214004CF0FF0141F0A001B3F1005FC2F8C0100CD371
S214004D001C4D1D4E296843F00103C2F8981001316E
S214004D10C2F89C60C2F8A0302960844210D01548C2
S214004D20164B0268124923F01F0343F00303C1F831
S214004D309820C1F89C30124B0132C1F8A0300260B6
S214004D40BFF35F8F05220A4BC3F894205A6A42F4D9
S214004D5080325A62BFF34F8FBFF36F8FBFF34F8F10
S214004D60BFF36F8F70BD00BF980D0020700F00203E
S214004D7000ED00E0981D0020030000208F0F0020AB
S214004D80E1FFFF3FF8B51446FFF78CFF1F2C27D92D
S214004D900027C2062A4D1CBF20F01F0020302A68BC
S214004DA0CB06284B18BF21F01F01FCB2A24219D82F
S214004DB0D3F8C04020F01F0024F47F4444F48074ED
S214004DC021F01F01C3F8C04040F00300C3F898204C
S214004DD041F003010132C3F89C00C3F8A0102A601A
S214004DE000201AE0C3F89840D3F89C40D3F8A0609F
S214004DF024F01F04A04226F01F0601D1B142EFD0D6
S214004E00B04201D8A14207D2D3F89840013724F027
S214004E10FF04C3F89840C8E72820BFF35F8F052239
S214004E20084BC3F894205A6A42F480325A62BFF3A1
S214004E304F8FBFF36F8FBFF34F8FBFF36F8FF8BDEA
S214004E40981D002000ED00E0BFF34F8F0549064B8C
S214004E50CA6802F4E0621343CB60BFF34F8F00BF13
S214004E60FDE700BF00ED00E00400FA05054B1A78E8
S214004E702AB95B78002B14BF02200320704701205C
S214004E80704700BFBB2A00200329F8B598BF124B15
S214004E9005460E468CBF00245C5C032805D8DFE878
S214004EA000F002080B0E44F002040C4B1F684FB9CA
S214004EB0F8BD44F00804F8E744F02004F5E744F0B1
S214004EC08004F2E77B681A68144203D0314628460D
S214004ED05B6898473F68EAE74CAD0200C01D0020BB
S214004EE038B5104D2B78ABB10F4C23781BB100F0C2
S214004EF08BFB0023237000201BF0DFFA0B4C50B115
S214004F0000F0D4FB0023012120782B70FFF7BCFFB4
S214004F100123237038BD0122054B1A702278054BF9
S214004F201A70F7E7BA2A0020B52A0020B32A002014
S214004F30B92A0020C02A002010B51AF063FB064BE1
S214004F4004461B781BB1BDE810401AF05FBBFFF7A4
S214004F50C7FF2046F7E700BFB42A0020002814BF8A
S214004F600121FF21074A13780B44137008D0064B23
S214004F701B78012B04D9054B1B780BB9FFF7B0BF84
S214004F80704700BFBB2A0020B32A0020B92A0020A1
S214004F9070B51AF037FB124E054633789BB900F011
S214004FA0B9FC044620B128461AF030FB204670BDF6
S214004FB00C481AF05BF900F013FF0B4B1C6000F076
S214004FC06DFD0A4B186000F009FA1BF078FA084BE2
S214004FD0002418600123284633701AF017FBE5E713
S214004FE0B62A0020C01D0020C81D0020C41D0020B9
S214004FF0BC1D002000292DE9F34114BF0121FF212B
S214005000254A00F1FF30135C0B4413543AD0234E6C
S2140050103178012936D9FFF729FF0128044634D80C
S2140050201F4F1AF0EFFA3B781BB31E4D2B781BB9B7
S21400503001222A701C4A1370DFF8708098F800303E
S21400504033B1019000F0E0FA0023019888F80030B0
S2140050501AF0DCFA01201BF030FA1AF0D3FA2B789B
S2140050602BB1019000F022FB002301982B70002347
S2140050703B701AF0CBFA3078A04203D02146FFF7F7
S21400508003FF347002B0BDE8F0810329F3D1022893
S214005090F1D11BF018FAEEE7BB2A0020B32A002055
S2140050A0BA2A0020B42A0020B92A0020B52A0020F7
S2140050B010B504461AF0A6FA002C14BF0121FF21F1
S2140050C0064A13780B44DBB21370B3FA83F3BDE8D9
S2140050D01040034A5B0913701AF098BABE2A0020E3
S2140050E0BD2A002068B51AF08DFA094B06461B78D3
S2140050F0012B04D81AF08AFA0025284668BD054B0D
S2140051001D6800F01DFB054430461AF07FFAF4E7F0
S214005110B32A0020C81D002038B5416004461AF0A6
S21400512071FA0546214604481AF0A3F82846BDE859
S21400513038401AF06BBA00BFC01D0020054B1B6834
S2140051405843054B00F5742000F23F20B0FBF3F007
S214005150704700BFC41D002040420F002DE9FF47E6
S214005160EFF3108672B600E000BF19F0F5FF0028D6
S21400517000F09B80704D714F2B7823B10020FFF715
S214005180EDFE00232B70FFF771FE0446002800F0AA
S2140051909380841EE4B2012C40F29680FFF766FEF0
S2140051A00128804604D9664B1B780BB900F0BCF981
S2140051B0644CDFF8B0912078DFF8ACA140450AD007
S2140051C0002389F800309AF8003013B94146FFF7FB
S2140051D05BFE84F8008099F800303BB12378022B00
S2140051E004D1002389F8003024F03AFCB8F1010F0E
S2140051F00FD9DFF84C8198F8003053B9524B1B7822
S21400520023B900F0FBF90122504B1A70012388F8ED
S2140052100030207800F07EFA9AF8003013B14C4B3C
S2140052201B78237000E000BF06B962B6EFF3108665
S21400523072B6484B1A7852B100221A70444B207846
S2140052401B78984203D101212170FFF71DFE3846D6
S21400525000F09AFB19F08BFF804600288CD1384F5F
S21400526089F800003B789BB1DFF8E0908AF80000F0
S21400527099F800301BB100F0C7F989F800800020CB
S2140052801BF01BF900284ED000F010FA00233B70EC
S2140052902B7823B10020FFF761FE00232B7000213E
S2140052A02078FFF7F1FD0023237000E000BF06B969
S2140052B062B604B0BDE8F0872B78002B3FF46EAFE3
S2140052C0FFF74CFE2C7069E7002003A900F0A0FB56
S2140052D0044600287FF462AF1F4B039A1B689A426D
S2140052E005D80120FFF73AFE01232B7056E71B4B2B
S2140052F0D3F8008000F024FA039B80449845F0D24F
S21400530000F036FA00280CBF00230423039943F06C
S2140053100203CDE9004338462346114AA1EB0801B3
S2140053201BF0D2F83AE7012000F0F4F906B962B6AD
S214005330EFF3108672B6A2E7BF2A00209C1D00205D
S214005340BA2A0020B32A0020BE2A0020B52A002050
S214005350C02A0020B82A0020BC1D0020C81D00203E
S214005360394F0000BD2A0020B92A002010B51AF0D7
S21400537049F90022044B1C781A701AF047F900F01D
S21400538075FC2043C0B210BDB72A002073B5114E7D
S21400539004463378834212D000238DF8043080B15F
S2140053A002238DF8053001A8FCF7C6FF0A4D402001
S2140053B054B1FFF7C3FE2B68181A2860347002B089
S2140053C070BD8DF80500EEE7FFF7B8FE2B681844B1
S2140053D0F3E700BF7B0D0020101E002073B50024ED
S2140053E001A88DF80440FDF759F82046FFF7CEFFD8
S2140053F0414A4249136F424803F007030B60D2F854
S2140054000011404D01F0030101604FF400203E49B9
S214005410032B48664FF40030486601F598318969D9
S214005420C1F3400129705ED0D2F8203103F00303A7
S214005430981E43424341D2F82421344C02F007021E
S214005440022A08BF43F001034FF4C8702370FFF729
S21400545075FE2F4B2F4A18600A2316682E49013B0B
S21400546013F0FF0341F8040BF9D100EBC0033044FE
S21400547018442B781060294D6BB323781E4A3BB92D
S214005480D2F8003103F00303591E4B424B41237000
S214005490D2F8003103F00303022B26D0032B27D0CB
S2140054A0012B18D1FBF7DEFDA8B11D4B411EDC68B1
S2140054B00023024608461946C4F30B04194E01346D
S2140054C004EB8404E4FB060118F0DAFAFFF736FE74
S2140054D02B68184428601F20FFF730FE2B681844FE
S2140054E0286002B070BD0123A5E7FBF7D5FDDBE71A
S2140054F019F0B4FED8E700BF00800050D81D002089
S214005500CC1D0020C22A002000900050C52A002092
S2140055100C1E0020E01D0020E41D0020101E0020B0
S21400552000C0015040420F00074A0849D2F8203117
S21400553003F003030B60D2F82431054A03F0070397
S21400554013601AF071B800BF00800050D01D002014
S214005550D41D00200E4B1A78C2B100221A700D4BD3
S2140055601A6F22F0070242F001021A67D3F82021D0
S21400557042F00302C3F82021D3F8242122F00702C8
S21400558042F00302C3F82421FBF756BD704700BF64
S214005590C32A00200080005008B5134B1B7813B3B5
S2140055A002201AF0F2FFF0B100F064FAD8B10F4B07
S2140055B09A6DD10302D5DA6D920714D49B6DDB0782
S2140055C011D401220A4B1A701AF0BEFF094B0A4A80
S2140055D01860136F23F0070343F003031367BDE857
S2140055E00840FBF729BD08BDC52A002000C00050B2
S2140055F0C42A0020DC1D0020008000500122014B40
S2140056001A707047C32A0020F8B51F4B1B78002B72
S21400561039D01E4C2378B3B91D4B9A6DD10302D5F1
S214005620DA6D92072FD49B6DDB072CD41AF08CFF13
S214005630184B194A1860136F23F0070343F003034F
S2140056401367FBF7F9FC1AF07FFF124B134D1B682C
S214005650134EC01A2B78134F56F8232046F8230013
S214005660111A3A681048521A0A213A600932B2FBF7
S214005670F1F20133DBB20260B3FBF1F201FB12334D
S2140056802B7000232370F8BDC52A0020C42A0020F2
S21400569000C00050DC1D002000800050C12A002001
S2140056A0E41D0020E01D00200C1E002008B519F0A7
S2140056B0BDFF124B12491A6F096822F007020A430F
S2140056C01A671049D3F82021096822F003020A431A
S2140056D0C3F820210C49D3F82421096822F00702D8
S2140056E00A43C3F82421094B1B7813B10122084B47
S2140056F09A62BDE80840FBF79FBC00BF00800050E0
S214005700D81D0020D01D0020D41D0020C52A002052
S21400571000E0005002280AD003280BD001280CD144
S214005720064A136923F00403136130BF7047002054
S214005730FCF70EBE0020FCF72FBE704700ED00E021
S214005740054B1B781BB1054B1B6803EBD303044AC0
S21400575010681844704700BFC52A00200C1E0020A1
S214005760101E00200122014B1A707047C52A002027
S214005770014B1878704700BFC52A002010B51AF0F4
S214005780F1FE0A4C0A4B19682368C31A01B10BB91B
S214005790206010BD4A699A423ABF9B1A0022D21A6C
S2140057A04A6128BF00238968F0E700BF141E002066
S2140057B0201E0020C38870B504460D463BB9FFF78F
S2140057C091FC8542064602D21AF06AFE35460F491B
S2140057D065610B68ABB90C60A36011E0AD1A9A68FE
S2140057E0184665612AB113465A69AA42F6D950B1DD
S2140057F01A4613468460A36013B15969491B596160
S21400580070BD0020F0E70C60F5E700BF201E00200A
S21400581038B5134D2B685B6993B1124A02201468A1
S2140058201C441AF0A6FE204600F06EFA00230E492D
S2140058302A680B70D088800709D501230B7038BD05
S21400584002201AF096FE022000F0A8FAEEE7926810
S214005850002AF4D050690344012BEBD9EFE700BFD0
S214005860201E0020141E0020C72A002070B51646F1
S2140058709DF81420C0E903360271049ABDF818306A
S2140058800260002204460D468260C38006BB1AF002
S21400589069FE2844A0613DB9E368656113B12046FE
S2140058A02168984796B1354619F0ACFE0646FFF7D4
S2140058B065FF29462046FFF77DFF074B1B68A3427E
