S01D0000626C7565746F6F74685F6869645F6B6579626F6172642E733337BD
S214000000C00A0020E90F0000EDF00100EDF001004D
S21400001033030200EDF00100EDF00100EDF0010009
S214000020EDF00100EDF00100EDF00100EDF0010053
S214000030EDF00100EDF0010015EF0100EDF001001C
S214000040EDF00100EDF00100EDF00100EDF0010033
S214000050EDF00100EDF00100EDF00100EDF0010023
S214000060EDF00100EDF00100EDF00100EDF0010013
S214000070615E0000F50E0000C9EF0100010F0000F0
S214000080CDEF0100EDF00100EDF00100EDF0010014
S214000090EDF001000D170000EDF00100EDF001009D
S2140000A0EDF00100A918000085180000EDF0010031
S2140000B0EDF0010079CF0100EDF001007DD90100DF
S2140000C0D19F0200CD9F020071D10100DD9F02008A
S2140000D0D59F020055D90100D99F0200BDD9010065
S2140000E0FDB20100D1B4010029DA0100EDF00100F3
S2140000F0EDF00100EDF00100EDF00100EDF0010083
S214000100EDF00100EDF00100EDF00100EDF0010072
S214000110EDF00100EDF00100EDF00100EDF0010062
S214000120EDF00100EDF00100EDF00100EDF0010052
S214000130EDF00100EDF00100EDF00100EDF0010042
S214000140002370B5404C05468AB0E36318B10088BA
S21400015023600CF071FB3D4829F0E7F93C4E3D4B1F
S214000160304633603C4B736023F0FBFF0021304683
S21400017016F094FF32A3D3E90023A062C4E9062355
S21400018023F0FAFFD4E90623194310434FF0FF3358
S214000190C4E90601CDE900014FF0FF32A06A29F05C
S2140001A02DFA02224FF0FF31A06A29F02CFA012026
S2140001B00CF050F94FF4007300222849A06A29F089
S2140001C07BFAB0F5007F38D100239422CDE90733BF
S2140001D009933C23CDE9033205939623A06A03A92D
S2140001E0069317F077F835B3287C0CF0EBFC054641
S2140001F0F0B9A06A29F041FB0CF08CFC0CF00CF96D
S21400020020B14FF48070002109F0B4FE0CF014F910
S21400021020B14FF40060002109F0ACFE23F070FF1F
S214000220012016F08FFF0E4A0E49A06A23F097FFB2
S21400023028460AB070BDFF20D7E70725F8E700BFBD
S2140002400DD5015520000000F00F0020690345EC95
S21400025078250020E5C200006C2500206C230020D5
S214000260074102004741020010B5054C237833B918
S214000270044B13B1044800E000BF0123237010BDF7
S21400028040120020000000002CF8020008B5034BC6
S2140002901BB10349034800E000BF08BD0000000092
S2140002A0441200202CF80200A3F5803A704700BFE5
S2140002B0174B002B08BF134B9D46FFF7F5FF002199
S2140002C08B460F461348144A121A29F0D4FE0E4BDA
S2140002D0002B00D098470D4B002B00D098470020ED
S2140002E0002104000D000D48002802D00C4800E054
S2140002F000BF1DF0CBFD200029001EF0FFFD1DF005
S214000300B1FD00BF00000800000000000000000073
S214000310C00A0020800F0020882C0020000000006B
S2140003200000000008B500F0C7FABDE80840014824
S21400033000F01CBB98A302000368994A23F47F438D
S21400034023F00703934273B5044600F02E820DD8BF
S214000350944A934200F0448102F18072934200F086
S2140003606C81914A93421ED002B070BD8F4A934270
S21400037000F0BF8102F18072934200F0C08102F16A
S2140003807E4202F57B029342EED1B0F80530272B71
S214000390EAD1C379012BE7D10289854B012A18BF20
S2140003A000221A70E0E7834E30460FF093F90546B8
S2140003B010B3814C814920681FF003FE80492068F5
S2140003C01FF0FFFD1EF042FE1EF041FE7D4B7E4AF2
S2140003D000937E49832320681FF0F3FD7C492B465B
S2140003E07C4A20681FF0EDFD284600F0C9FD7A49DA
S2140003F020681FF0E6FDFEE7022130780FF0A4F932
S214000400044610B36C4D6D4928681FF0DAFD6C4940
S21400041028681FF0D6FD1EF019FE1EF018FE694B68
S214000420694A00936949882328681FF0CAFD68490D
S2140004302346684A28681FF0C4FD204600F0A0FD49
S214000440654928681FF0BDFDFEE7A0220346009020
S214000450114630780FF056F9044610B3564D5749FA
S21400046028681FF0AEFD564928681FF0AAFD1EF04A
S214000470EDFD1EF0ECFD534B534A00935349912378
S21400048028681FF09EFD52492346524A28681FF0EE
S21400049098FD204600F074FD4F4928681FF091FD36
S2140004A0FEE74E481DF0A2FE032120460FF0B2F9EB
S2140004B0054610B3404C414920681FF082FD404974
S2140004C020681FF07EFD1EF0C1FD1EF0C0FD3D4BF6
S2140004D03D4A00933D49972320681FF072FD3C4932
S2140004E02B463C4A20681FF06CFD284600F048FD6D
S2140004F0394920681FF065FDFEE701200FF09EF9E0
S214000500054610B32C4C2D4920681FF05AFD2C4987
S21400051020681FF056FD1EF099FD1EF098FD294B31
S214000520294A00932949992320681FF04AFD284943
S2140005302B46284A20681FF044FD284600F020FD80
S214000540254920681FF03DFDFEE7022130780FF0B8
S2140005500FF9054600283FF407AF174C17492068E7
S2140005601FF02FFD164920681FF02BFD1EF06EFDB4
S2140005701EF06DFD134B144A009314499E23206809
S2140005801FF01FFD12492B46124A20681FF019FD66
S214000590284600F0F5FC104920681FF012FDFEE723
S2140005A0A0000103A0000600A0000100A0000F03A9
S2140005B0B82A00207E0D00205413002054A5020007
S2140005C0A4A30200C1A40200A9A30200B2A30200D1
S2140005D0C1A30200BEA30200D6A30200E7A3020046
S2140005E08D481DF003FE207B0FF03AF905460028E3
S2140005F03FF4BAAE894C8A4920681FF0E2FC89496C
S21400060020681FF0DEFC1EF021FD1EF020FD864B4C
S214000610864A00938649A72320681FF0D2FC8549A6
S2140006202B46854A20681FF0CCFC284600F0A8FC24
S214000630824920681FF0C5FCFEE7818880481DF0CF
S21400064039FD00227F4C804B022120781A700FF073
S2140006507BF8054610B3714C714920681FF0B1FC59
S214000660704920681FF0ADFC1EF0F0FC1EF0EFFC99
S2140006706D4B6E4A00936E49B32320681FF0A1FCB1
S2140006806C492B466C4A20681FF09BFC284600F0FD
S21400069077FC6A4920681FF094FCFEE70221207868
S2140006A00FF066F8054600283FF45EAE5B4C5C49EA
S2140006B020681FF086FC5B4920681FF082FC1EF055
S2140006C0C5FC1EF0C4FC584B584A00935849B82342
S2140006D020681FF076FC57492B46574A20681FF0C3
S2140006E070FC284600F04CFC544920681FF069FC5A
S2140006F0FEE7564802B0BDE870401DF077BDB0F882
S214000700051053481DF0D6FC0FF0BCF8054610B394
S214000710424C434920681FF054FC424920681FF0B1
S21400072050FC1EF093FC1EF092FC3F4B3F4A009399
S2140007303F49C62320681FF044FC3E492B463E4AEC
S21400074020681FF03EFC284600F01AFC3B49206853
S2140007501FF037FCFEE720790FF01EF8054600284C
S2140007603FF402AE2D4C2E4920681FF02AFC2D497E
S21400077020681FF026FC1EF069FC1EF068FC2A4B61
S2140007802A4A00932A49C82320681FF01AFC2949E0
S2140007902B46294A20681FF014FC284600F0F0FB80
S2140007A0264920681FF00DFCFEE7274B1B78012B1F
S2140007B07FF4DAAD0023274A082113605360264BE6
S2140007C027201B7893700FF00FF8054610B3134CD4
S2140007D0134920681FF0F5FB124920681FF0F1FB53
S2140007E01EF034FC1EF033FC0F4B104A00931049E9
S2140007F0E42320681FF0E5FB0E492B460E4A2068CE
S2140008001FF0DFFB284600F0BBFB0C4920681FF0FA
S214000810D8FBFEE711486DE70AA402005413002037
S21400082054A50200A4A30200C1A40200A9A30200CA
S214000830B2A30200C1A30200BEA30200D6A3020018
S2140008401DA402007E0D0020B82A002042A402004B
S21400085056A40200B02A0020AE2A002075A402008A
S21400086008B50F4B83420CD11EF055FC0D4A0128EB
S2140008700D4913780AD10D4A0D48D35C0B701DF054
S214000880B5FCBDE8084001200EF000BF192B0EBFD6
S21400089000230133DBB21370002306480B70EEE72B
S2140008A09CA90200AF2A0020AE2A0020D0A4020095
S2140008B08AA40200A4A40200002370B5254C1946A1
S2140008C0206894B0022280681DF0A8FC00232068EF
S2140008D00222194640681DF0A1FC01AA15461E4BCF
S2140008E003F11806144618685968083303C4B3425F
S2140008F02246F7D119889B7828462180A37029F0D4
S214000900D8FB164B0246294618681FF008FB144B06
S214000910186803F047FF08AA1546124B03F128068D
S214000920144618685968083303C4B3422246F7D100
S21400093018681B7920602371284629F0BAFB2946DF
S214000940024600201FF0EBFA07481DF04FFC14B0DB
S21400095070BD00BFF40B00203BA50200D40A0020A7
S214000960C80A002056A50200EAA4020007B50190B6
S21400097029F09FFB0246044B0199186803B05DF806
S21400098004EB1FF0CCBA00BFD40A002037B5002510
S2140009900F4B0DF1070118688DF807501FF0ECFAA1
S2140009A09DF8070048B10B4C0D28237807D10A495B
S2140009B00A48CD541DF07EFB257003B030BD4E2B8B
S2140009C09FBF054AD054013323701DF08BFBF4E71C
S2140009D0D40A0020092B0020B92A002083A5020093
S2140009E030B503687F4A23F47F4323F0070393421E
S2140009F089B040F0F4800822002112207A4B0EF0D5
S214000A00DDFE044610B3794D794928681FF0D9FAFF
S214000A10784928681FF0D5FA1EF018FB1EF017FB61
S214000A20754B764A009376493D2328681FF0C9FA2D
S214000A3074492346744A28681FF0C3FA204600F01B
S214000A409FFA724928681FF0BCFAFEE701460322A7
S214000A5014206F4B0EF0B2FE044610B3634D64498B
S214000A6028681FF0AEFA634928681FF0AAFA1EF03D
S214000A70EDFA1EF0ECFA604B604A009360494B2397
S214000A8028681FF09EFA5F4923465F4A28681FF0D1
S214000A9098FA204600F074FA5C4928681FF091FA2C
S214000AA0FEE70146052216205A4B0EF087FE054645
S214000AB010B34E4C4E4920681FF083FA4D4920680B
S214000AC01FF07FFA1EF0C2FA1EF0C1FA4A4B4B4ADC
S214000AD000934B49592320681FF073FA49492B4667
S214000AE0494A20681FF06DFA284600F049FA47493F
S214000AF020681FF066FAFEE70DF10F0104A80EF05D
S214000B00CDFE044610B3394D394928681FF059FA0E
S214000B10384928681FF055FA1EF098FA1EF097FA22
S214000B20354B364A00933649642328681FF049FA45
S214000B3034492346344A28681FF043FA204600F01A
S214000B401FFA324928681FF03CFAFEE79DF8153078
S214000B5001468DF818309DF8143008228DF81930AB
S214000B609DF8133018208DF81A30FF238DF81B30AF
S214000B70FE238DF81C309DF812308DF81D309DF840
S214000B8011308DF81E309DF810308DF81F3006ABF2
S214000B900EF014FE054610B3144C154920681FF0DD
S214000BA010FA144920681FF00CFA1EF04FFA1EF0D7
S214000BB04EFA114B114A00931149742320681FF016
S214000BC000FA10492B46104A20681FF0FAF928460A
S214000BD000F0D6F90D4920681FF0F3F9FEE709B0DA
S214000BE030BD00BFA000010097A5020054130020EE
S214000BF054A50200A4A30200D2A50200A0A50200EC
S214000C00B2A30200C1A30200BEA30200D6A3020044
S214000C10C8A50200CCA5020010B5234C01F02CF9A3
S214000C2001F054FB236F23F0070343F0030323670D
S214000C301EF01CFC1D4B00209B6A9B075EBF01221A
S214000C401B4B9A62D4F8203123F0030343F00203CF
S214000C50C4F82031D4F8243123F0070343F002030C
S214000C60C4F82431D4F8403123F0030343F00203E0
S214000C70C4F84031D4F8603123F0030343F0020394
S214000C80C4F86031D4F8403223F0030343F0020383
S214000C90C4F84032D4F8003223F0070343F00203CE
S214000CA0C4F8003210BD00BF0080005000C00050E5
S214000CB000E0005008B501F003FF01280ED1134BE9
S214000CC004205A6E4FF480231149520358BF114A2C
S214000CD04B6601F51041086258BF536603F044FDA9
S214000CE01EF0C1F903F0CEFC03F028FD03F0ECFC87
S214000CF01FF00FF9FFF790FF03F0D4FC1EF0AAF9DF
S214000D0000F0E4FDBDE8084004F09CB90080005007
S214000D100090005000A0005030B51F4D95B00DACAF
S214000D200FCD0FC495E80700282384E807001B4A68
S214000D300024CDE902230523CDE904448DF81130C3
S214000D4006232146102209A88DF81330069429F0B0
S214000D5092F94FF48021124B0DAACDE907130D230B
S214000D608DF824300E238DF825300E4B07A90A93F4
S214000D7020230B9301238DF831300B4B0B48009347
S214000D8002AB03F025FF054621464FF4E1301EF086
S214000D909EF9284615B030BD80A9020000C0055057
S214000DA024C005500A2B00205C1200200C130020E3
S214000DB030B51E4D95B00DAC0FCD0FC495E80700AD
S214000DC02923002584E80700194A1024CDE90223C8
S214000DD0184B2246CDE904354FF48073294609A8FE
S214000DE0069329F048F94FF4A021134B0DAACDE93C
S214000DF007130F238DF82430104B07A90A935023AE
S214000E000B9340F20113ADF830300D4B0D480093B4
S214000E1002AB8DF8254003F0DBFE044629464FF46E
S214000E20E1301EF054F9204615B030BD80A902000E
S214000E300000065001010102240006502A2B002063
S214000E40B012002030130020831E012B10B520D8CE
S214000E5001291ED81C4C0422236905210020C3F357
S214000E60401301F071FC0121236C04220846C3F3F1
S214000E70400301F069FC154B1B68186808B1436A0B
S214000E809847134B1B681868E8B1BDE81040436AE2
S214000E9018478B1E012B14D8012814D800220A4CA0
S214000EA0104623690521C3F3401301F04DFC0121D0
S214000EB0236C0022BDE810400846C3F3400301F04F
S214000EC043BC0129D7D910BD00C00350CC0A00206E
S214000ED0D00A002008B50549054804F077F9FFF761
S214000EE01BFFBDE80840FFF763BF00BFC00A002035
S214000EF00413002001481FF0D2B900BF0C130020D5
S214000F0001481FF0CCB900BF30130020014B1A6A0D
S214000F10186810470C130020014B1A6A186810470F
S214000F203013002001481EF0F1B800BF9CA9020053
S214000F300122084B1A700022074B1A700422074B36
S214000F401A701F22064B1A70064B1A68064B1A6058
S214000F50704700BF7F0D00207A2B0020800D0020F8
S214000F60810D0020D40A002054130020024B0349B0
S214000F7018681FF026B800BF54130020B4A902005A
S214000F8070B50C4C0C49064620681FF01AF803F0A2
S214000F9015FC0546206803F005FC3046FFF7E6FF23
S214000FA0284603F0FFFB20680449BDE870401FF0A8
S214000FB008B800BF54130020B6A90200B8A9020062
S214000FC007B508201EF01AF902238DF80030054BED
S214000FD0684601931EF04BF8082003B05DF804EB5A
S214000FE01EF018B9006A181008B500F02DF8124B5C
S214000FF012498B4212D30020114B12498B4218D350
S214001000FFF756F9186850F82240586840F8224012
S214001010013298688242F5D30C33EAE70022F8E7FB
S2140010201C6844F8220001325C68A242F8D30833F8
S214001030E4E70022F8E700BF34F8020040F80200B8
S21400104040F8020040F802004FF400414FF0FF3035
S214001050124B134A10B59A60D3F8882042F47002F7
S214001060C3F888200F4A916601F1884101F50052C5
S21400107010664FF6DF7050660220C3F8D000BFF34C
S2140010804F8FBFF36F8F08244FF440330648C0F8E5
S2140010908041D36004600B6110BD00BF00ED00E02E
S2140010A0000000000090005000E100E0014B1868CE
S2140010B0704700BFDC0A0020084B1B6F03F00703D5
S2140010C0022B04D0032B05D0012B05D0FEE7044BE2
S2140010D018687047034BFBE70348704700800050D2
S2140010E0DC0A0020E00A0020002D310108B5FFF7D9
S2140010F0E3FF054B1B6FC3F303330133B0FBF3F081
S214001100024B186008BD00BF00800050D80A0020BF
S2140011100048704700B4C404014B1868704700BF0D
S214001120E00A0020054B1860054B1B6F03F0070311
S214001130032B01D1FFF7DABF704700BFE00A00209B
S2140011400080005000487047002D3101014B1868A0
S214001150704700BFE40A002005490A6813180548CE
S21400116083428CBF4FF0FF320B601046704700BFC3
S214001170E80A00200080002037B5046801210546F3
S2140011803A2000F09DFD002301226179207901F0CC
S214001190DBFA14223023217913FB012303F1A04349
S2140011A003F570331B686279D340DB4303F0010319
S2140011B02370A379022B0ED100F00EFB2A460749B6
S2140011C0607900F033FB0123024661792079CDE98E
S2140011D0003301F061FA002003B030BD21F10100B8
S2140011E008B501213A2000F06BFD032101230422FB
S2140011F0002001F0A9FA00201EF075F90122214B0B
S2140012004FF46070C3F844241EF068F81E4B00F5D7
S214001210D520D3F8F02000F2FC4042F00102C3F8DB
S214001220F020D3F8FC2042F08072C3F8FC20174A66
S214001230A3F55D431A60164B0222B0FBF3F0154B84
S21400124001381861C3F8F0204FF48072C3F8042305
S2140012504FF06043104A0020C3F8B02F0F4AC3F87F
S214001260802ED3F8002E42F48072C3F8002EFF22A0
S21400127083F82020D3F8002E22F48072C3F8002EC4
S21400128008BD00BF00D0035000ED00E0FF030040A3
S214001290F8590D00000004E055CEACC50900010069
S2140012A04FF06043D3F8802E30B5D20715D5012411
S2140012B00B4D8440D5F8FC2042F08072C5F8FC2027
S2140012C0D3F8002E2243C3F8002E53F82020002A1D
S2140012D0F0D003F82010002030BD1120FCE700BF3E
S2140012E000ED00E02DE9F04F9A46564B85B01B788E
S2140012F006460F461546DDF83C909DF844B0DDF8EE
S2140013005080002B00F08D80072A00F28C800E9B08
S214001310002B00F08880B9F1000F00F08480129B4B
S214001320B3F5006F7FDC012802D1109B002B7AD02A
S214001330454B03EB05131B7B002B76D0434C10224A
S2140013400021684628F097FE04EB45141022002F73
S21400135059D13946204628F08EFE43F210036380AA
S214001360BBF1000F03D1E37843F00303E370374A81
S2140013700E9B02EB451CCCE90193129B6901013BD5
S214001380C3F30A009DF84C30012E03F003034FEA26
S214001390836343EA001E53582D48CDF800A000EAA8
S2140013A003004EEA0003535041D113230CF1100EF4
S2140013B0CCF80C309CE80F008EE80F006FF00301AD
S2140013C0DCF81C20109B61F39F02012FCCF81C2038
S2140013D0CCF8143003D1CCF81890CCF804300027A1
S2140013E0194A290102EB051342F80180159A28468E
S2140013F05A60694622469F605E7301F045FA384699
S21400140005B0BDE8F08F0021204628F034FE4FF4EA
S21400141044736380BBF1000FA9D1E37843F0300337
S214001420A4E70C48ECE70C48EAE70C48E8E7B8F114
S214001430000FD4D19CF8023068F304138CF8023005
S214001440CDE700BF7B2B002058130020D8130020C8
S2140014500F80FFF3028000F0018000F0078000F0AC
S21400146038B5124B05461B78DBB1E0B11EF01AF812
S2140014700F4A00231146147B54B92B6001251A012C
S21400148001EB03131D738C501EF012F8204638BD76
S2140014900133082B02F11002EDD11EF009F80548C1
S2140014A0F5E70548F3E70548F1E700BF7B2B00208A
S2140014B058130020048000F0028000F0018000F045
S2140014C013B51DF0EFFF00230B4A147B7CB90133E4
S2140014D0082B02F11002F8D1019001F077F9074BC2
S2140014E001981C701DF0E4FF204602B010BD1DF0F0
S2140014F0DFFF0348F9E700BF581300207B2B0020CE
S214001500058000F00D4B10B51B78044693B10728F4
S21400151012D81DF0C7FF0A4B03EB04131A7B2AB13F
S21400152000241C731DF0C4FF204610BD1DF0C0FF34
S2140015300448FAE70448F8E70448F6E77B2B00205F
S21400154058130020068000F0028000F0018000F0B2
S214001550154B13B51868002301908DF804301DF064
S214001560A1FF124B1C7824B11DF0A2FF104802B058
S21400157010BD01221A701DF09BFF0E4B01A81C73B4
S2140015801C7783F82C4083F83C4083F84C4083F863
S2140015905C4083F86C4083F87C4008238DF8073065
S2140015A001F040F92046E2E7BBA902007B2B0020B1
S2140015B0038000F0581300200A4A08B512785AB182
S2140015C007280BD8084A02EB00131B7B43B1002107
S2140015D001F01AF9002008BD0448FCE70448FAE7C1
S2140015E00448F8E77B2B002058130020028000F008
S2140015F0018000F0078000F00A4A08B512785AB158
S21400160007280BD8084A02EB00131B7B43B10121C5
S21400161001F0FAF8002008BD0448FCE70448FAE7A1
S2140016200448F8E77B2B002058130020028000F0C7
S214001630018000F0078000F00A4A08B5127852B11F
S21400164007280AD8084A02EB00131B7B3BB101F0BF
S21400165069F9002008BD0548FCE70548FAE7054893
S214001660F8E700BF7B2B002058130020028000F014
S214001670018000F0078000F00D4B1B7893B107281F
S21400168012D889B10B4B03EB00131B7B73B10A4BCB
S2140016901A6D012303FA00F010401ABF00200B70E9
S2140016A008707047054870470548704705487047FA
S2140016B07B2B00205813002000000450028000F00E
S2140016C0018000F0078000F00B4A10B512780C4637
S2140016D062B107280CD859B1084A02EB00131B7BED
S2140016E043B101F031F92070002010BD0448FCE73A
S2140016F00448FAE70448F8E77B2B0020581300203C
S214001700028000F0018000F0078000F0204B2DE9F9
S214001710F0471F6D5A6D1F4C174010D54FF0004113
S2140017201D4A1165D868C0F304200301E35804EB92
S21400173000125BB3BDE8F047002152681847012647
S2140017400025DFF85480DFF85490374217D023681E
S214001750C8F850609BB1A168284601316268A16054
S2140017609847637B012B0AD148B909EB45131A7BCE
S21400177060F341021A731A7F60F341021A7701354B
S214001780082D4FEA460604F11004DED1BDE8F087C6
S214001790000004505813002000200450D8130020E6
S2140017A070B5044601250B4E04B970BD94FAA4F03A
S2140017B0B0FA80F005FA00F306EB001224EA030400
S2140017C05368002BF0D0117B11B191689847EBE776
S2140017D09847E9E7D814002008B5192000F0A2FDC4
S2140017E028B14FF00072074BC3F880211A601A2008
S2140017F000F098FD28B14FF08062024BC3F88021BC
S2140018001A6008BD00E100E038B505460C461DF03C
S21400181049FE0022044B03EB05135C601A73BDE817
S21400182038401DF045BE00BFD8140020F8B5054668
S2140018300F4616461DF036FE104B05F0FC02D3F898
S21400184024140023EC1804F00304144321FA04FCC7
S2140018501CF0010F07D00133042BF3D1FF241DF039
S21400186027FE2046F8BDFF2CF9D00122044B03EBDF
S2140018700413C3E901761A73F1E700BF00C00350F2
S214001880D8140020074BD3F82404D3F8202403F5FB
S2140018900053104000F0553020F05020C3F82004CC
S2140018A0FFF77EBF00C00350074BD3F82404D3F8DD
S2140018B0202403F50053104000F0AA3020F0A020AA
S2140018C0C3F82004FFF76CBF00C00350024B196832
S2140018D0024B186814F0F6BFF00A0020EC0A00204D
S2140018E037B5920004460D46019228F045FD431C8C
S2140018F00BD060B929462046019A28F085FB0028BF
S214001900044808BF002003B030BD0348FBE7034887
S214001910F9E700BF10E000F021E000F024E000F05E
S21400192010B5044628F030FD431C10D088B901F0ED
S214001930CFF8234620F003002044984201D100202F
S21400194010BD53F8042B0132F7D00348F8E70348DC
S214001950F6E70348F4E700BF0EE000F021E000F0F1
S21400196024E000F008B51DF096FD014B186008BD98
S214001970181D0020014B18681DF091BD181D002091
S214001980044BD3F88420D206FBD4D3F88400C0F3EB
S214001990811070470040005038B5104B0546D3F80C
S2140019A020310C4603F00303022B0BD0032B0DD083
S2140019B0012B0FD1FFF77AFB052305B1286004B190
S2140019C0236038BDFFF7A8FB0323F6E7FFF7BAFB53
S2140019D00223F2E701230020EFE700BF008000505B
S2140019E073B50D4600210E4B0191D3F88041064693
S2140019F004F00304012C09D0022C0CD00C460EB1C6
S214001A00019B336005B12C6002B070BD01A8FFF7E2
S214001A10C3FF0F24F3E7FFF795FB0190EFE700BF46
S214001A200080005038B5184B0546D3F824010C4604
S214001A3000F00700062805D8DFE800F0230B131B8C
S214001A401F0F17000023184605B1286004B1236055
S214001A5038BDFFF72BFB0523F6E7FFF727FB06232A
S214001A60F2E7FFF759FB0323EEE7FFF755FB0423E6
S214001A70EAE7FFF767FB0223E6E71DF038FB0723DC
S214001A80E2E70123E0E700BF0080005038B5104BC6
S214001A900546D3F840310C4603F00303022B0BD067
S214001AA0032B0DD0012B0FD11DF023FB092305B10D
S214001AB0286004B1236038BDFFF748FB0823F6E72B
S214001AC01DF01AFB0B23F2E701230020EFE700BF0F
S214001AD00080005038B5144B0546D3F800020C467B
S214001AE000F00700042804D8DFE800F01B0A0E12F6
S214001AF016000023184605B1286004B1236038BDDF
S214001B001DF0F7FA0923F6E7FFF720FB0823F2E7B4
S214001B101DF0F2FA0B23EEE7FFF7E8FA0E23800A31
S214001B20E9E70123E7E700BF0080005038B5104B17
S214001B300546D3F840320C4603F00303022B0BD0C5
S214001B40032B0DD0012B0FD11DF0D3FA092305B1BD
S214001B50286004B1236038BDFFF7F8FA0823F6E7DB
S214001B601DF0CAFA0B23F2E700231846EFE700BF82
S214001B700080005038B5104B0546D3F860310C464F
S214001B8003F00303022B0BD0032B0DD0012B0FD138
S214001B901DF0AFFA092305B1286004B1236038BDF3
S214001BA0FFF7D4FA0823F6E71DF0A6FA0B23F2E7B0
S214001BB001230020EFE700BF0080005010B40D4C5A
S214001BC00B46D4F8204204F00304012C0AD0022C61
S214001BD00CD008B1002101600BB100221A605DF83C
S214001BE0044B70475DF8044BFFF7D6BE5DF8044B18
S214001BF0FFF74CBF0080005038B50C4605461DF078
S214001C004AFC064B9A6A82EA040101EA050454403B
S214001C109C62BDE838401DF042BC00BF00C00050CA
S214001C20B0F5207F1FD009D8B0F5007F15D003D8B7
S214001C3068B1B0F5C07F0AD000200CE0B0F5607F38
S214001C40FAD10B4BD3F88000C0F3011003E0084B29
S214001C50186FC0F3033001307047054BD3F890007F
S214001C60C0F30460F7E7024B186FC0F38020F2E77A
S214001C70008000504FF400320E4B014610B5002095
S214001C809A66FFF7CDFF41F6713248430A490B4B7F
S214001C9088428CBF4FF480100020DC69DA639A68B3
S214001CA022F4401202439A60E20344BF0022DA6341
S214001CB010BD00BF00900050005A620200000350A2
S214001CC0420910B510D0012A10D00B4B0B4C022A3B
S214001CD018BF234600F01F0051B103F580530122C0
S214001CE002FA00F0186010BD1346F3E7044BF1E764
S214001CF003F50053F3E700BF688000506082005091
S214001D006480005008B580201DF0E8FA034B984226
S214001D109EBF4FF48032024B1A6708BD005A62021B
S214001D2000A000501FB50023B0F5807F019377D048
S214001D3028D8382800F094800BD82438092810D8E2
S214001D4009280ED8DFE800F0676767670D0D620D9B
S214001D50377D52285FD008D83D283BD03E2800F07B
S214001D608480019805B05DF804FB8028F9D1414BCA
S214001D701B6F03F00703013B032BF2D8DFE803F0E9
S214001D8044413F6CB0F5D06F5BD019D8B0F5A06F6A
S214001D9066D00AD8B0F5806F3DD0B0F5906FE0D130
S214001DA0002001A9FFF73EFEDBE7B0F5B06F2DD0AF
S214001DB0B0F5C06FD5D1002001A9FFF767FED0E7C8
S214001DC0B0F5006FECD00AD8B0F5E06F4DD0B0F5A6
S214001DD0F06FC6D1002001A9FFF7CCFEC1E7B0F531
S214001DE0086FBED1234BD3F8003103F00303022B58
S214001DF02CD0032B2ED0012B30D1FFF78DF90323E7
S214001E0000E005230193ACE70223FBE7002001A9CD
S214001E10FFF7E6FDA5E7002001A9FFF7BDFDA0E757
S214001E2002934FF0E0231B695B0705D5FFF75EF9C9
S214001E300C230393039BE5E703A902A8FFF726FEFE
S214001E40F8E7002001A9FFF745FE8AE7FFF77EF9CD
S214001E500823D7E71DF04BF90723D3E70123D1E783
S214001E60002001A9FFF7AAFE7BE7002001A9FFF7E3
S214001E705DFE76E7008000504FF40022034B5A6662
S214001E80012203F580439A62704700BF009000501D
S214001E9008B5FFF747FF082811D00938012811D8E0
S214001EA04FF40012094B4FF6FF705A6603F5D8330D
S214001EB05B6A13F0010F18BF4FF4FA7008BD044BAD
S214001EC01888FBE74FF6FF70F8E700BF0090005059
S214001ED06C0D002070B504468020FFF723FF032812
S214001EE000F082804FF40022444B02215A6645F6E9
S214001EF00E03434AC2F88030424B9962012103F533
S214001F0080539962936DD903FCD4D4E900131B0562
S214001F1043EA0163E17B94F822500B43217B94F85B
S214001F20236043EA0143617B43EA0133A17B43EA32
S214001F30811313619169D4E904031B0643EA8063A5
S214001F4001F000410B43A17EE07E0B43217E43EA75
S214001F500143617E43EA01239361E369126A002B21
S214001F600CBF0021082122F00D0242EA030242EAD9
S214001F708002234B42EA01021A6294F820204FEABC
S214001F80421232D1986A94F8211020F0330042EAC7
S214001F900112024342F001029A621B4A996D32EA2C
S214001FA00101FBD1022217498A621A659A6D520016
S214001FB0FCD41869A26820F4700040EA02504FF082
S214001FC0004218610F4B9A611DB9022203F5805337
S214001FD09A6216B901220D4B9A6294F824301BB10E
S214001FE0074B0B4AC3F8802070BD996A21F0330175
S214001FF031430A4342EA4502EEE700BF0090005034
S21400200000C0005000D000500300014000E0005027
S214002010F1A7FFFF1E4B13B5996A9A6D12F4803F25
S21400202018BF01241B4A18BF9462022494629B6D59
S214002030DB0303D5164A936D9C07FCD50222154B8D
S214002040134C1A65A36D5B00FCD4134BA26993F97D
S214002050003022F47F020344000222F47F4280B262
S21400206083F30803104340EA0340A0610220019175
S214002070FFF7C2FDA36D019913F4803F05D0012040
S21400208002B0BDE81040FFF7B7BD02B010BD00BFFC
S21400209000C0005000D000507C2B0020014B93F96C
S2140020A0000070477C2B002001221548154B816AE2
S2140020B09A62826D02F00302032AFAD102229A6221
S2140020C01A650F4B9A6D5200FCD40F4A986D32EA8F
S2140020D00000FBD101220B4B1A65A3F580539A6DC5
S2140020E09007FCD49A6D9207FCD50222054B1A6520
S2140020F0034A936D9B07FCD50320FFF77DBD00BF09
S21400210000C0005000D0005003000100F0B5D0E938
S21400211001434FF480061A4A4178057856664FF414
S214002120D156022702F5B8325662164E4F2977600E
S2140021304FF0010728BF4F2106F5805677601669D5
S214002140F603FCD441EA052151611B01417B43EAB9
S21400215004230B43017B43EA41039360C37B817BEB
S2140021601B0143EA4113417C0B43017C43EA4103D4
S2140021705360837C13B16FF4D1535362F0BD00BF3C
S2140021800090005000100250014B1880704700BFAE
S2140021906C0D0020014B1880704700BF6A0D0020B0
S2140021A04FF4001208B5184B5A660223174A5360BC
S2140021B0936813F48033FBD1012822D1FEF7ACFFDD
S2140021C0134B984215D003F5122303F5F863984293
S2140021D013D0104B00EB8002400AB3FBF0F0520A1B
S2140021E00A4BDA62012218635A620022074B5A60D1
S2140021F008BD45F67A10084AF2E745F61A00074A7F
S214002200EEE75362F1E700BF009000500040025036
S21400221000F0490264666666D8B80500BBCF0500C4
S214002220B0F5207F10B50C4642D008D8B0F5007F38
S21400223033D003D888B1B0F5C07F0ED010BDB0F54E
S214002240607FFBD11F4B013CD3F8801021F030019A
S21400225041EA0414C3F88040F0E71DF037F81DF09B
S21400226000F94FF48031184A164B1167196F013C7C
S21400227021F4704141EA04341C67FEF737FF044638
S214002280FFF77EFBC0F1020120461DF0E4F800F0E7
S2140022902DF8BDE81040FFF735BD0A4B013CD3F8DA
S2140022A0901021F0F85141EA0464C3F89040C5E765
S2140022B0044B013C196F21F4806141EA84241C67B9
S2140022C0BCE700BF008000500090005008B5012118
S2140022D0022000F0E5F81CF0F9FF1DF0C2F84FF4FC
S2140022E08032014B1A6708BD0090005008B54FF4C5
S2140022F0C0701CF0F3FFBDE80840044988428CBF5C
S214002300022101214FF42070FFF78ABF80F0FA0205
S214002310034B5868C0F30800003818BF0120704708
S21400232000ED00E0054B420953F8223000F01F0094
S21400233023FA00F0C04300F00100704700E100E01F
S214002340194B10B51B6873B3184A5268012A2AD075
S214002350174A8020C2F80031FFF7E4FC05281FD199
S2140023604FF4C070FFF75CFC0128044604D102213C
S2140023704FF4C070FFF754FF07220E4B1A6101227C
S214002380A3F580535A60094A1369DB07FCD5012C74
S21400239009D12146BDE810404FF4C070FFF740BF9A
S2140023A00122054B5A6010BDCC1D002000C0015014
S2140023B00080005000E0015000D0015000224FF491
S2140023C00031074B1A60074A516602F59832526888
S2140023D0012A02BF044AD2F800211A60704700BFE3
S2140023E0CC1D00200090005000800050044A417828
S2140023F0536F23F4407343EA01235367704700BFCB
S2140024000040005010B5044608B1FFF7D7FF0E4A4B
S214002410136943F00403136103F0F6F81DF04BF85C
S2140024201DF039F827F0A0FF1DF039F81DF044F82C
S21400243003F00CF91CB1BDE81040FFF781BFBDE802
S2140024401040FEF753BE00BF00ED00E010B5044696
S21400245008B1FFF7B3FF0C4A136943F00403136196
S21400246003F0D2F81DF017F827F07EFF1DF017F8DE
S21400247003F0ECF81CB1BDE81040FFF761BFBDE803
S2140024801040FEF733BE00BF00ED00E0034A0179BE
S214002490D36E23F030030B43D366704700400050E2
S2140024A0F8B504461C4BD3F88420D106FBD4D3F8E9
S2140024B08430C3F381139C422CD0FEF7FDFD012C23
S2140024C0064602D121461CF0C6FF1CF0E4FF4FF082
S2140024D00072124B07465A6620461CF0F2FF4FF475
S2140024E080630D4D621E93402B676B6E9A0103D47A
S2140024F0D5F884309B060AD538461CF0D0FF022C4F
S21400250008D13046BDE8F84000211CF0A4BFD5F83D
S2140025108430EAE7F8BD00BF00400050006000507D
S21400252007B518B90191FEF7C7FD0199064B1B7850
S21400253043B1064B984205D8012003B05DF804EB82
S214002540FFF7AEBF0220F8E77D2B0020005A62029C
S2140025500278034B012100201A70FFF7E1BF00BF8D
S2140025607D2B00204FF0004238B5264B26495A6690
S21400257001224A604AF6CD3103F50B235D6C1964DF
S214002580154030BB9968C9070BD4002401221F4BA5
S2140025905A6015B11E4B1F4A1A6427F049F82046A8
S2140025A038BD1A498A601C4AD96ACC0705D49042BD
S2140025B001D10724EAE70130F6E79042E5D1F8E7D3
S2140025C00132DC6A14F0080406D08A42F8D10724E7
S2140025D0DFE700221049F4E78A42F8D020220B4BAE
S2140025E00B495A620122A3F580539A6023460A4A91
S2140025F0486A800603D49342E9D00133F8E7934251
S214002600C7D1E4E700900050005009500060095020
S214002610004009503254FFFF40420F004FF0004286
S21400262038B5194B194C5A66012203F50C235A602B
S2140026304AF6CD33656C23644378154093401343C4
S214002640134AD363A368827823F0740343EA021321
S214002650C278002A14BF042200221343A360027922
S214002660837943EA022323614279C37943EA02234A
S21400267063610078FFF776FF0DB1064B236426F002
S214002680D7FF012038BD00BF009000500040095021
S214002690004000503254FFFF072AF7B501F003064A
S2140026A014461F464FF003012CD89500A94000FAA7
S2140026B005F21C4801911CF005FF01991A4806FA1C
S2140026C005F21CF0FFFE194B19499DF82000002F5B
S2140026D008BF1946012303FA04F40C60154B16498B
S2140026E0002808BF0B461C60144B9DF82400C3F856
S2140026F020441031A3F6DC33002808BF0B461C60CC
S21400270003B0F0BDA2F10805AD00A94000FA05F23D
S2140027100B4801911CF0D6FE01990A4806FA05F20C
S214002720CFE700BF00C4035008C4035010E40350B2
S21400273010D4035014D4035014E4035000E00350A4
S21400274004C403500CC40350F8B504460D461F4697
S21400275016464AB101238B403021194A01FB00225C
S214002760FFB141F21001535004EB4403072D4FF024
S2140027700F014FEA031317D8A80006FA00F28140AB
S214002780104818441CF09EFE56B9012130230C4810
S21400279001FA05F503FB040077B141F21003C550BA
S2140027A0F8BD42F21001DEE7A5F10800800006FA47
S2140027B000F281400448E4E742F21003EFE700BF6E
S2140027C000C0035004C003500CC003504FF4001266
S2140027D00B4B10B5C3F88020BFF34F8FBFF36F8F3E
S2140027E00024FF22074B21465C6520209A625C602D
S2140027F0FFF766FA2146BDE810402120FFF760BAD1
S21400280000E100E000000450044A054B002918BF10
S2140028101346012202FA00F0186070474020045068
S2140028204010045010B5012104462020FFF748FA56
S21400283001212120FFF744FA0122114B5A60227829
S21400284012069A606178A27842EA01429A61FF22F3
S2140028509A6200229A631A644FF000425A654FF05B
S214002860FF324FF4001103F500531A65054AC2F80B
S2140028708011E3781B01DBB282F81533116010BDBE
S2140028800000045000E100E02DE9F04101250C466F
S214002890C3B2DFF888E0D1F800809D408F7ACB7A0B
S2140028A094F80DC0097BCEF850500EF5005E4EF839
S2140028B020804FF0300E184E1B050EFB006043EADA
S2140028C0074343EA415322F00302C0F860C0C365E1
S2140028D002671CF0E7FD736D2B437365237A13B113
S2140028E0336C2B433364637A13B1B36B2B43B363FC
S2140028F02279A37943EA0243084A93616179E3792E
S21400290043EA014306498B61034B55639D64BDE86A
S214002910F0411CF0CDBD00BF000004500020045064
S2140029200010045010B50124C0B284401CF0BAFD5B
S214002930044B5A6D22EA04025A659C62BDE81040B8
S2140029401CF0B6BD0000045010B50124C0B284408F
S2140029501CF0A8FD074BDA6A224209D15B6B34EA09
S21400296003030CBF012400241CF0A2FD204610BD6A
S2140029700024F9E7000004504FF40032054B9A6635
S21400298041F6713203F51C33DA63012203F5005376
S214002990DA6070470090005041F671320121064B14
S2140029A0DA6303F50052D1600022DA634FF4003296
S2140029B0A3F518339A66704700000350CB784A7820
S2140029C010B55B010C7843EA82030A79234343EA95
S2140029D002130C22424302F1B0421363012C02BFE1
S2140029E08A78024B43F8202010BD00BFE8800350D1
S2140029F008B54FF0B0435A6802B960B15B680BB1D6
S214002A001CF072FD4FF0B04130B10120074B58600A
S214002A101CF06AFDC86008BD1CF066FD0223CB6092
S214002A201CF062FD0122024B5A60F4E700100058C9
S214002A30002000584FF0B0435B6870B50BB11CF037
S214002A4053FD0121104B4578596083780679002B99
S214002A50C37814BF02240024002B14BF04220022D3
S214002A604379DB0043EA06132B43234313434FF01B
S214002A70B0429360054B59600378002B14BF0B4699
S214002A800223D36070BD00BF00200058001000581D
S214002A904FF48032064B5A6603F5E6235B69C3F3B0
S214002AA08512827003F03F021B0B42700370704762
S214002AB000900050014B986CD96C70470080E00F76
S214002AC0024B1868C0F30740704700BF0080E00F55
S214002AD00120034B9B680A3303F01F03984070479E
S214002AE00080E00F70B5054616461C4621B94FF427
S214002AF020701CF0F3FB0146402C1BD003D8DCB141
S214002B00202C1BD070BD602CFCD1042303FB06F2E6
S214002B10560806EB4113B3FBF2F3094A203B02EAE0
S214002B20C303AA6822F06002AA60AA681443AC60D5
S214002B30EB61E7E70623E9E71023E7E70823E5E785
S214002B40F8FF7F00012200F5805310B55A6040F66A
S214002B50AA6341F20502436100230E498360C36500
S214002B60C26000F500520361C361C36491640A4900
S214002B708365884202D0094CA04207D1884203658B
S214002B8002D0064B984201D10023436501235360CF
S214002B9010BD00BFFFFF010000C00550000006503A
S214002BA070B50D46FFF7CEFF012300F58056736023
S214002BB0AB7C04461BB1836843F080438360EB7CA8
S214002BC05BB1354A2B7D944245D1A2F51032C2F84E
S214002BD08C31E36D43F08003E3652A8A6B7B2046E5
S214002BE01343EA891343E3602B7BD5E90112FFF711
S214002BF079FF6B7D1BB1A36843F48033A360AB7D84
S214002C001BB1A36843F40043A360EB7D2A7E1B0739
S214002C10120502F4E00203F0E0431343A365697E65
S214002C201D4A8B1E012B1D4B1FD894421BD002F54C
S214002C30804294420CBF01224FF0FF3203EB421356
S214002C40022041F21C620329985020D10423F36528
S214002C502B78636170BD124A944204BFA2F52032FD
S214002C60C2F89C31B5E70022E8E794420DD00C4A42
S214002C7094420CBF01224FF0FF3203EB42130220B6
S214002C8042F21C6201299850DFE70022F5E7042291
S214002C9004F50053DA65DBE700C0055000C00350BA
S214002CA00000065038B50446054D26F0E8FC0FCC6B
S214002CB00FC594E8030085E80300002038BD00BF78
S214002CC0D01D002047F6FF739A42F0B566D0012962
S214002CD066D8344DCF0015F8313005EBC100012B16
S214002CE0847813D10025C3781B1B9D4202D3E018BD
S214002CF0C0B2F0BD591B4668A3EB510136F911600E
S214002D009642D4BF0D4601F1FF33EEE74068002837
S214002D10EFD0B0F90030934204DBB0F902309342B2
S214002D20B8BF134682883D44FF2A19BFC8214FF01A
S214002D30280CB0F90610B0F908C0A1EB03020CBFCE
S214002D400126002692FBFCF26D78324412B29542C0
S214002D5001DD002A01DA6A1E12B24FF47A7700EB20
S214002D60C206F188B668013213FB016112B221EA8D
S214002D70E1715C319542B1FBF7F104DD00EBC20670
S214002D80B6888E42EBD200EBC20232F8040C8842C0
S214002D9028BF0846A04238BF2046A9E7FF20A8E77C
S214002DA00020A6E7D01D00200129F0B553D82B48F7
S214002DB000EBC10410F83110636801290FD1E078E8
S214002DC0A478904294BFC4EB0001C4EB0201001B40
S214002DD0CAB28242C8BF002233F91200F0BD002BEF
S214002DE039D0A178914202D3B3F90200F6E7E17830
S214002DF0B3F900009142F1D999886478A1F1FF06F1
S214002E00013C714203F10405E4B2714103F10C0781
S214002E101FFA82FCCEB2B44216D805EBC1014FF4BD
S214002E207A756A43B1F902404968521A04EBD471C4
S214002E3002EB610292FBF4F29042CFDBB3F90200A0
S214002E409042CBDC10B2C9E737F831E04E1CE645BD
S214002E50E3D33146DEE70248C0E700BFD01D0020BE
S214002E600080FFFF08B50448FFF71CFFBDE80840D8
S214002E70012026F008BC00BF74B20200004870476C
S214002E806E0D00207FB50222084B0949CDE90123CB
S214002E904FF00073CDE90313052301A94FF0FF306F
S214002EA0059326F026FC07B05DF804FB006A1800C0
S214002EB0000204001B0603F0706300F00F00090216
S214002EC0034301F47061120402F470220B431343AF
S214002ED0014A1360704700BF0020025C60B50546DB
S214002EE019B10139B1F5806F10D2094EF06810F4AF
S214002EF08030FBD143EA0121120741EA050302F0C4
S214002F008052134343F00043736060BD0120FCE72A
S214002F100020025C0122054B9A60DA68D203FCD4DA
S214002F20D86820F00F000004000C70470020025CF8
S214002F30014B1868704700BF0040025C014B5868A0
S214002F40704700BF0010025C014B186B704700BF53
S214002F500010025C014B1868704700BF0010025C4E
S214002F60014B9860704700BF0010025C014B18646C
S214002F70704700BF0010025C014B5864704700BFEA
S214002F800010025C014B5863704700BF0010025CE3
S214002F900022014B1A6070470010025C024A136858
S214002FA043F00103136070470010025C43F2040212
S214002FB0014B1A60704700BF0010025C024A13689B
S214002FC043F03003136070470010025C044B1A682D
S214002FD042F480721A601A6822F480721A6070478F
S214002FE00010025C024A136843F480631360704763
S214002FF00010025C034A136823F4702343EA00407F
S214003000106070470010025C044B1A6902605A692F
S21400301042609A698260DB69C36070470010025C98
S2140030200268044B1A6142685A6182689A61C268F3
S214003030DA6170470010025C024B1A6BD207FCD4B0
S214003040186270470010025C024B186B00F00E000E
S214003050704700BF0010025C82B01FB507930A9B42
S21400306004AC8B4228BF0B4604E907001048D10089
S214003070079948BF03330160099948BF23F003034B
S21400308023F0704301F0E041194341F000518160A4
S214003090002102F0E042019C134343F00053C1605C
S2140030A004618361416304B0BDE8104002B070471C
S2140030B00000025C3F22034B1A631022DA610322EF
S2140030C09A6370470000025C024AD36B9B07FCD4ED
S2140030D0704700BF0000025C034B986A10F02400A3
S2140030E018BF0420704700BF0000025C08B5FFF759
S2140030F0F3FF064BDB6B23F47F4323F0EF0303431E
S2140031001EBF0122024BC3F8FC2F08BD0000025C64
S21400311000F0FF3F032208B5054B186019615A639B
S214003120FFF7C8FFFFF7D0FFBDE80840FFF7DEBF98
S2140031300000025C42680346182A10B50AD0202A0E
S2140031401DD0102A2BD1174AD2F80424D4010AD451
S214003150012013E0134AD2F804249001F8D50A6837
S21400316042F008020A6010481A6882424FF00000D7
S2140031700ED10A6842F040020A60586010BD094A43
S214003180D2F804245201E3D50A6842F00402E9E7C3
S214003190064CA242F2D10A6842F08002ECE7072011
S2140031A0ECE700BF0000025C7E2B00207F2B002097
S2140031B00B4607B50749D1F80414C90708D50021FE
S2140031C000920246084600F05BF803B05DF804FB88
S2140031D00120FAE70000025C1346064AD2F80424EF
S2140031E0D20504D50A46014600201CF09ABB0120F1
S2140031F0704700BF0000025C13B5084CD4F80444C6
S214003200E40508D5009313460A460146002000F060
S21400321061F802B010BD0120FBE700BF0000025CB1
S21400322013B5084CD4F80444E40508D500931346B7
S2140032300A460146002000F071F802B010BD0120D9
S214003240FBE700BF0000025C70B504460D4616465C
S2140032508CB00A4A09AB07CA83E807001A4621461B
S214003260CDE90563CDE90333CDE9013300954FF48D
S21400327080301CF07AFA0CB070BD00BFE4A90200E2
S214003280F0B51C465B6815468DB01A07129E1AD11B
S214003290CBB17268934216D10C4B0D4A53F821708D
S2140032A009AB07CA83E807001A462946CDE9053365
S2140032B0CDE90333CDE90163009447F480701CF038
S2140032C054FA0DB0F0BD0720FBE700BFF0A90200DE
S2140032D0E4A90200F0B516465A688DB0102A0D46CD
S2140032E0129F15D17A68102A12D10A4A09AC07CA69
S2140032F084E8070022462946CDE90547CDE9034480
S214003300CDE90144044800961CF02FFA0DB0F0BD3C
S2140033100720FBE7E4A9020030000100F0B51646DE
S2140033205A688DB0102A0D46129F15D17A68102A59
S21400333012D10A4A09AC07CA84E807002246294681
S214003340CDE90574CDE90344CDE90144044800966F
S2140033501CF00BFA0DB0F0BD0720FBE7E4A9020055
S2140033601000010082B070B586B0149D03AE202D0B
S21400337086E807000B9359D805EB85038B4203D0EC
S21400338006236B438B4253D10C9BAB4250D10F9B11
S214003390B3EB450F4CD1129A934249D101222946EC
S2140033A02220159BFFF79AFD044630BB03460622F3
S2140033B00E210C20FFF77EFD0123CDE900332B46BE
S2140033C096E807001CF06EF90E230BAA009307CAB6
S2140033D02B461CF0B2F80C23164C00930EAA2B4674
S2140033E007CA1CF0DAF8636823F07F0343F026036D
S2140033F06360FFF78FFD30B10624204606B0BDE8B7
S214003400704002B07047636823F07F0343F02203E6
S2140034106360FFF77FFD04460028EDD1062311AA5E
S214003420009307CA2B461CF0EBF8E6E70124E4E716
S2140034300724E2E70020025C70B598B0002843D06D
S2140034402C4C08AD0FCC0FC50FCC0FC50FCC0FC53D
S21400345094E80F0085E80F006D4604AE04F11003F3
S21400346020340FCB85E80F0094E80F0086E80F00A5
S214003470FFF7ACFD0420FFF7BDFDFFF797FD3046D4
S214003480FFF7CEFD002408AE56F8040B0134FFF714
S214003490D3FD102CF8D1FFF751FD0328FBD90024EB
S2140034A0FFF776FD2646FFF743FD55F8043B013649
S2140034B05840042E44EA0004F5D12CB1012206201F
S2140034C00D4B1A7018B070BDFFF780FD0820FFF78F
S2140034D047FD0020FFF74AFD0720FFF74DFD4FF49C
S2140034E00070FFF74FFD0820FFF784FDFFF756FD3D
S2140034F00020E7E7CCAA0200812B002008B5FFF7E2
S21400350065FD0122014B1A7008BD00BF802B00200C
S21400351030B589B005AC84E80700FFF715FDC30594
S21400352001D5FFF7EBFF0A4D2B781BB11CF074FB9F
S21400353000232B70074B069AD3E901018DE80300A0
S21400354002921B6894E807001CF06FFA09B030BDC1
S214003550802B00202CAB02001FB51CF05DFB044640
S21400356030B1012206240D4B1A70204604B010BD5F
S214003570FFF7DEFC0090FFF7DBFC0190FFF7D8FCBE
S2140035800290FFF7D5FC03906846FFF749FDFFF76A
S214003590B5FFFFF713FDFFF725FDE6E7812B0020BB
S2140035A005289ABF014B185C0020704738AB020014
S2140035B030B5154B87B00293144B0390049346F630
S2140035C011030D46059300F06DF91428044616D134
S2140035D068461CF0D9FB4FF0A843032202A95A63A1
S2140035E019601D619A63DA6B9207FCD1142C02D124
S2140035F068461CF0D7FB00F089F9044601E0002875
S214003600E9D0204607B030BDE81D002004000020A9
S2140036102DE9F04FB1B005468C46E9466E4F3B9E0D
S214003620DDF8F8E0409C07F1100AC846386879686B
S2140036300837A8E803005745C146F6D10EEB020846
S214003640C8F1000909F00F09002E00F0AF8077429C
S21400365007F00F070121DDF8FCB0C4F1100ACDF821
S21400366010B0059144F0005106914FEA0A2101F48A
S214003670F85141F02101079106B96B460893002DD9
S21400368040F09680002C00F0938004AB0993002E47
S21400369000F0908046F000530A93002D40F08D8095
S2140036A0002C14BF0123212343EA07230B9308A908
S2140036B042F00053CDF830C03D980D910E934FEA7E
S2140036C0092343F041030F93109002B10CA9002A7E
S2140036D016BF00224FF00052412342EA0E0211911B
S2140036E0129213933C9B3D4A149310AB15933C4B9C
S2140036F00021169340F6110317933A4B002D08BF8E
S2140037001346189314AB1993374B10221A931123B0
S2140037101B931CAB184626F0AEFC01221D924AF005
S21400372080421E9200220346239205B9EB46102CD7
S21400373008BF01230DF1900A102200215046CDF853
S21400374080B02193229426F096FC002C37D020AB34
S214003750002125938F4218BF534647F08042269299
S2140037603A9A2CA88A422892299313460CBF4FF007
S21400377080430B46102233432B912A9326F07BFC82
S214003780FEB95346C8442D932CA948F0804318A888
S2140037902E93FFF70DFF30B92DB90346A34212D181
S2140037A0002818BF2C2031B0BDE8F08F102751E755
S2140037B001236BE747F000536EE7212374E70123EC
S2140037C0C6E728ABDEE703F1C0026A4412F8C02C55
S2140037D001331043E2E700BF3EAB020050AB0200ED
S2140037E01000002054AB020004000020F0B5C029F1
S2140037F09FB0249E4FD0B1F5807F04D0802941D061
S21400380029201FB0F0BD40F2344440F21445002E8B
S21400381008BF2C4621271025019401240296039404
S21400382004950597259F069706B102AC07940124D8
S214003830089509940A9221220B940C950D92174A2A
S2140038400AAC0E92164A0F94109242F6110211928A
S214003850129313941495159201AA1692CBB112AB3B
S2140038601793042318931123199316AB1A901B93DE
S21400387040F61103C9081C911AA806A91D93FFF764
S21400388097FEBEE7002E14BF4FF486644FF48264A2
S214003890C0E70EABE4E70F20B3E700BF58AB02006B
S2140038A01000001038B5164B5A6E42F004025A66E5
S2140038B0D3F8802242F00102C3F88022114B5B68E5
S2140038C0C3F3080343B14FF0A842D36B13F0430F82
S2140038D0FBD11424204638BD4FF0A843DC6B14F00F
S2140038E04304FBD1084D2B681BB90421284602F07F
S2140038F0B3FD2B68013343F000432B60EAE700BFBB
S2140039000080005000ED00E0E81D0020014B002084
S2140039105B68704700ED00E04FF40052034B002058
S2140039209A660322C3F86022704700BF00900050DA
S21400393008B5FFF70FFBC30708D5FFF785FB06287A
S21400394004D00A28F5D1FFF7D9FDF2E74FF400526C
S214003950034B00209A660322C3F8602208BD00BF0E
S21400396000A000501FB54FF40052164B9A66032273
S214003970C3F86022FFF7EEFAC30710D401201CF04C
S21400398058F9002814BF6FF092040024FFF7D0FF08
S21400399000280CBF20466FF0920004B010BD102225
S2140039A00021684626F067FB6846FFF72DFBDDE939
S2140039B000321343029A1343039A1343DED00024C3
S2140039C0E4E700BF00900050012300F01F02A0F5BE
S2140039D006200949A0F550604009934051F8202080
S2140039E01A4341F82020054951F8202022EA030313
S2140039F041F82030704700BFEC1D0020001E00205C
S214003A000121A0F506230F4AA3F550635B0900F0D9
S214003A101F0001FA00F052F8231008430A4942F842
S214003A202300D1E90030034488680344C868096964
S214003A3003445B1802BFC2E90033C2E902331361D4
S214003A40704700BF001E0020EC1D00202DE9F04F3F
S214003A50A9B002921D46DDE9326704460822CDE988
S214003A600301414021FA02F34B40980702F1080295
S214003A7018BF9B00202A1C44F4D18123B4FBF3F327
S214003A8003EBC313E41A7A4B04F506241B7804F5FB
S214003A905064002B40D1FDF719FF014620B16FF0AE
S214003AA0910029B0BDE8F08F4022059008A826F0C6
S214003AB0E2FA4022059918A826F0DDFADFF8C89148
S214003AC0DFF8C8A14B4603F10F0B102208A9DAF85D
S214003AD00000CDF800B0059325F06EFB00220146ED
S214003AE0059B09F110090DF1200891424CD1CDF843
S214003AF000B01022DAF8000018A925F066FB4FF097
S214003B00000B03460DF160085B4549D1594B9945BA
S214003B10D8D10122564B1A704FF081084FF0000999
S214003B20DFF868A1A4F506235349A3F550625209AD
S214003B3051F8221004F01F0C21FA0CF1C90744D4E6
S214003B404E4951F8220020FA0CF010F0010030D057
S214003B50B9F1000F08BFA146A3F6FF448123B4FBCA
S214003B60F3F303EBC313E41A04F50624B8F10108D3
S214003B7004F55064D6D1029BEBB1B9F1000F1AD010
S214003B80349BC3F800906DE058F8040BCDE906238B
S214003B900591FFF719FF069A079B05990132A4E7DE
S214003BA058F8040B05930BF1010BFFF729FF059B53
S214003BB0AAE7029B13B96FF08B0072E7349BB9F14A
S214003BC0000F4ED0C3F800906BE70EB100233360B1
S214003BD00FB100233B604FF0100B00232A4621460E
S214003BE0DAF80000CDF800B012F0DAFF08BB0EB12C
S214003BF0C6F800B02B68224A934224D166B15FB162
S214003C003B462146DAF8000018AA13F01DF880B9E2
S214003C103B6832689B1A3B60D5E90223DDE9031056
S214003C20834208BF8A4216D0A4F50624A4F6FF44B1
S214003C3094E7144B984206D01233984203D0133BB5
S214003C409842E9D02BE72146DAF8000013F042F854
S214003C500028E1D0AFE7029B13B16B68012B03D0BD
S214003C60349B1C6000201CE76FF0840019E700BF3F
S214003C70822B002000710800EC1D0020001E002092
S214003C80105D175EFFDF00F0006D0800EC0A0020F4
S214003C902DE9F04F87B08246894698461646DDF8ED
S214003CA040B02AB1002B4ED040F26C739A424DD8E9
S214003CB0BBF1010F4DD8002406F11007394601204C
S214003CC005941CF0F5FB0546002845D021463A46EB
S214003CD026F0D1F905ABCDE9014300942B4601222D
S214003CE050464946FFF7B2FE044680B110F18C0FED
S214003CF008BF6FF08D043A460021284626F0BBF92F
S214003D0028461CF0E6FB204607B0BDE8F08F144BB3
S214003D10C5E902A92B60C5F804B02EB1324641466B
S214003D2005F1100026F080F90E483B462A46059914
S214003D30006812F09DFE18B90598FFF745FEDAE711
S214003D406FF09104D7E76FF08604DCE76FF091041C
S214003D50D9E76FF08504D6E76FF08C04D3E700BF91
S214003D60105D175EEC0A00202DE9F0438DB0814609
S214003D70DDE914780C4615461E469BB1B8F1000FD7
S214003D8005D16FF0860420460DB0BDE8F083002F05
S214003D90F7D0B7F1005FF4D3C3F1005303F5004347
S214003DA09F42EED81022002108A826F064F90022CF
S214003DB007AB029305AB019306AB2146009348463A
S214003DC008ABCDE90522FFF741FE04460028DAD10C
S214003DD00599DEB1A94203D80029D2D115B1D0E7A2
S214003DE00029FBD0491BB14228BF3146069B094833
S214003DF0C8F8001000913A46079900682B4412F064
S214003E00CFFE002818BF6FF09104BCE7A942E9D2A4
S214003E10B7E700BFEC0A002030B58DB00C4605466B
S214003E201022002108A826F026F9002207AB0293EC
S214003E3005AB019306AB21460093284608ABCDE9B7
S214003E400522FFF703FE0446D0B9099B012B1AD0C2
S214003E50104B0799186812F03DFFB8B90122079871
S214003E600D49A0F50623A3F550635B0900F01F0576
S214003E70AA4051F823506A4041F82320FFF7C0FDBE
S214003E8020460DB030BD6FF08404F9E76FF0910462
S214003E90F6E700BFEC0A0020EC1D00202DE9F043F9
S214003EA08BB01746DDE91545DDE913269C46DDE9AE
S214003EB01738894621B96FF086000BB0BDE8F0834D
S214003EC0002FF8D00EB9002CF5D1129909B9002AA6
S214003ED0F1D10DB9002BEED1B8F1000FEBD0254A89
S214003EE0944544D10288B2F5105F40D14288B7EBC2
S214003EF0D20FE0D322F04001802902D0B2F5807FB5
S214003F00D9D11CB92046C8F80040D6E7AE421CD22C
S214003F103219954219D29C42CDD8314622462846BF
S214003F2026F08FF82E4614F00F03C4D1CDE9019782
S214003F30CDE90336CDE90543CDE907540993FFF7EC
S214003F40EBFC38B16FF09200B7E79C42EBD96FF00C
S214003F508900B2E707AA04A901A8FFF729F90546D0
S214003F60FFF7E6FC2843EDD1C8F80040A5E76FF060
S214003F708500A2E7004440042DE9F04FA9B083462F
S214003F8017469A460E46DDF8C890DDF8D88029B95F
S214003F906FF08603184629B0BDE8F08F002AF7D0E8
S214003FA0B9F1000FF4D0349B002BF1D0B8F1000F1C
S214003FB0EED00024434B0CAD93E8070085E80700DD
S214003FC03C22214619A8189426F055F832887188A4
S214003FD002F4E040B0F5804FDAD03B4E3B480BEAA7
S214003FE0060646F01066864265D1B1F5807F62D13E
S214003FF047F212118A425ED106203549BAF11F0FE8
S2140040000A69CB6800FB02F209680B93CDE90C1233
S2140040100E94BDD9339B402BBAD9359B1F2B4DD957
S21400402009F1010220261292402299F800300F97DB
S214004030042B18AFCDE91324CDE915721096119410
S2140040401794A5D1FFF768FC03460028A2D10B9B66
S21400405015AACDE9086305AB07CA83E8070002ABDB
S21400406012AA07CA83E80700DDE910018DE80300FD
S2140040700F9B95E80700FFF775F90546FFF758FC14
S21400408055EA000384D13D46349A20AE2C4603CC34
S214004090B44210605160254602F10802F6D10022B3
S2140040A01046B9180132412A03D12022C8F8002050
S2140040B070E70870F5E76FF085036BE76FF089032C
S2140040C068E700BFE4A902000000FFF6000002094E
S2140040D0B8AA0200F0B50F461D468DB000285AD08B
S2140040E0002958D0002A56D0002B54D00388B0F8A8
S2140040F002C0194603F44F44B4F5824F18BF00239C
S21400410021F0FF01B1F5E24FDBB203D06FF085007E
S2140041100DB0F0BD122B01D0172BF7D10CF1070113
S214004120B2EBD10F4FEAD10638D31F4A06ACBCF526
S214004130807F07CA84E80700E8D1122B07D11B4B03
S2140041401A691B681344CDE906320023089300233E
S214004150CDE909760B93FFF705FC0028D8D1FFF7C9
S214004160DBFB0028D4D1124B1149059302AB049017
S21400417083E803000CAB13E903008DE80300099BFA
S21400418094E807001BF0D7FB0446FFF7D1FB20435B
S21400419007D12E60BCE76FF08600B9E76FF08900A4
S2140041A0B6E76FF09200B3E7E4A90200B8AA0200EF
S2140041B053FC01002DE9F0438FB01D46DDE916C61D
S2140041C0002863D0002961D0002A5FD0002B5DD084
S2140041D0BCF1000F5AD0002E58D00388B0F802E089
S2140041E01C4603F44F47B7F5824F18BF002324F050
S2140041F0FF00B0F5824FDBB24ED0B7F5824F4BD101
S214004200122B01D0172B47D10EF10700B2EBD00FBF
S2140042104FEAD0083AD34FEA4802571C674538D8C9
S214004220BEF5807F38D1122B18BF4FF000094FF033
S214004230000308BF1B4CCDE9081805F1010114BFA7
S2140042404C46D4F80C90CDE90B120A930D93FFF769
S21400425063FBC0B9CDE9058902AB08AA07CA83E8A3
S21400426007000EAB13E903008DE803000B9B94E8F0
S21400427007001BF07FFB0446FFF75AFB20430ED1D6
S21400428004232B7037600FB0BDE8F0836FF0860014
S214004290F9E76FF08900F6E76FF08500F3E76FF057
S2140042A09200F0E7B8AA02002DE9F04389B00D4667
S2140042B014461F46DDF8488020B96FF0860009B026
S2140042C0BDE8F0830029F8D0002AF6D0B8F1000F38
S2140042D0F3D0028802F44F43B3F5824F0CBF134667
S2140042E00023DBB202D06FF08500E8E7122B01D086
S2140042F0172BF8D122F0FF02B2F5E24F40D14288E8
S214004300C8F80020002A36D1E200C8F80020D8F805
S2140043100020B2F5807FE6D1122B09BF384B002271
S2140043201A681B6905EB040608BFD2180023184656
S214004330224412F801CD16F8011D0843B1EB0C011A
S2140043400CBF4FF0FF3C4FF0000CB5420CEA0303E5
S21400435043EA0103EDD10028AFD0002BADDA109B65
S2140043609C4249D822462946384625F05DFE119BD8
S21400437000201C60A3E70732B4EBD20FC7D09CE73F
S2140043802A78042A99D1621ED2005208B2F5807F9C
S214004390C8F80020A7D1122B05F1010318BF4FF073
S2140043A000094FF0400205934FF000030ABF144E79
S2140043B04E46D6F80C90CDE90623FFF7ADFA002856
S2140043C07FF47DAFCDF80C90D8F800300733DB08CB
S2140043D0029308AB13E903008DE80300059B96E8FB
S2140043E007001BF070FB0646FFF7A2FA00287FF4D2
S2140043F066AF002EB3D060E76FF089005FE700BFBE
S214004400B8AA02002DE9F04F8FB00546DDE918A9DD
S21400441093461E46DDF868801C9F09B300B3B8F1CA
S214004420000F1DD0E7B1BAF1000F02D1B9F1000FAD
S21400443016D1284B26F47E129A4247D128461BF006
S214004440E2FC0446B0BB6B88BBEBD30F4FEAD3024B
S21400445006D316F47C1FC6F3054504D0102D03D9E9
S2140044606FF0860426E010251B9B9D422BD8002368
S214004470CDE901121022CDE905930DF12809CDE909
S214004480033ACDE90823CDF81C90FFF745FA044619
S21400449080B907AA04A901A8FEF79EFE0646FFF704
S2140044A047FA044656B958B92A464946404625F0C2
S2140044B0BBFD3D6020460FB0BDE8F08F6FF0920464
S2140044C000233B60F6E76FF08904F3E76FF085049E
S2140044D0F0E700BF0002C0032DE9F041069F0C463E
S2140044E01646054610B309B302B9FBB96288B3EBAA
S2140044F0D20F4FEAD20819D34C220021284625F0C5
S214004500BAFD0D4B27F47E129A4212D120461BF0BC
S2140045107AFC044638B942463146281D25F084FD0B
S214004520C5F824802F602046BDE8F0816FF0860431
S214004530F9E76FF08504F6E70002C0032DE9F041C5
S2140045400E4614460546002840D000293ED012B933
S2140045500020BDE8F08103681F4823F47E138342E1
S21400456037D1AF6BE7B1C7F1100807F12800424515
S214004570284404D225F058FD3C44AC63E8E74246A4
S21400458025F052FD1022103C3C19AA63E0D02846C4
S21400459005F128011BF053FC0028DAD14644A86335
S2140045A0102C0CD9671E27F00F073A4631462846CE
S2140045B01BF045FC0028CCD1E41BC9D03E44224663
S2140045C0314605F1280025F02FFDD6E76FF086006E
S2140045D0BFE76FF08800BCE70002C0032DE9F04398
S2140045E088461F4605468BB070B169B163B1036853
S2140045F0234923F47E1088423ED113F47C1FC3F374
S214004600054604D0102E03D96FF086042AE0102643
S21400461096422BD8FFF780F9044618BBAB6B05F122
S2140046202802CDE901236B6A2A1DCDE90423102355
S214004630CDE9083007AB1A460390069005F13C0911
S21400464001A904A8CDF81C90FEF7EAFD0546FFF781
S2140046506FF904466DB928B932464946404625F0FA
S214004660E3FC3E6020460BB0BDE8F0836FF08904A3
S214004670F8E76FF09204F5E76FF08504F2E700BF05
S2140046800002C00307B56B46054A1068516803C3AD
S2140046906846FDF7C3FF002003B05DF804FB00BFCB
S2140046A05CAB020013B50024064A6846536F43F01D
S2140046B00103536700948DF80440FDF7E7FE20469B
S2140046C002B010BD0040005030B58BB06C46174DA0
S2140046D00FCD0FC40FCD0FC495E8030084E8030088
S2140046E0134BD3F84C21120318D4D3F85041E4B23C
S2140046F08DF81940FDF7D2FC204480F308008DF8B1
S21400470018000C48FCF70EFD6846FDF7E3FB4FF477
S214004710FA70FDF73FFD00200BB030BD064B1C883D
S2140047204FF6FF739C4208BF8C24E1E764AB02009F
S2140047300080E00F00F049020001E00F30B5094D9F
S21400474087B001AC0FCD0FC42B6801A823601923D6
S2140047508DF80530FDF7DAFC6420FDF715FD002026
S21400476007B030BD8CAB02006FF00402502110B5CC
S2140047700A480B4C12F0800FD3B21BBF03F00F0396
S214004780043BA3181B1802F101020CBF83F80013A8
S2140047901976402AEED1002010BD00BF00ED00E0E3
S2140047A000E100E010B504461AF075FE024B1C60EE
S2140047B01AF075FE002010BD141E002010B51AF069
S2140047C06AFE034B1C681AF06AFE204610BD00BF46
S2140047D0141E0020034B0222186800238068194626
S2140047E019F01CBDF40B002030B51446054687B002
S2140047F010461BF032FC6369024683423CBFD4E994
S21400480003315B181B1A7BB10F4928460391002120
S214004810CDE90131012304940093D4E900131AF082
S21400482006FD002007B030BD0122627694F82D20E8
S214004830002AF6D084F835301321E36920469847DD
S2140048402046636A9847ECE7E94700002DE9F04701
S21400485088B004468846174699461AF023FE8246D4
S214004860002F7AD0237E03F0FF02002B00F0A280F8
S21400487020461BF0F2FB6669B04205D1637ED4E9A0
S21400488003521544AD1B01E0F9D9851BBD4228BF74
S2140048903D461AF007FE94F82D300646002B6DD1E3
S2140048A02A464046616925F0BFFB63692F462B44C4
S2140048B0636121E0037803F0FD0111295BD1216BD0
S2140048C0814205D1A3F111014B424B4184F83430AB
S2140048D0013F6369216B01328B4203F1010308BF7C
S2140048E02363636195426069E4D1D4E90323216BB5
S2140048F01344994200D122630025D4E90323616959
S2140049001344994208BF6261207A6576FCF754FE2C
S21400491020461BF0A2FB6369834232D1257694F8C9
S2140049202D30E568656103B125632046636A9847C4
S214004930214B2A460393002302932369216801939F
S2140049400123207A0093049463681AF070FC207A9E
S214004950FCF752FE30461AF0ABFD5046C9F8007020
S2140049601AF0A6FDD9F80030002B0CBF1B20002043
S21400497008B0BDE8F08708F8013BAAE72F460022FA
S214004980B0E70123207A23760DF11E01FCF79CFE8A
S2140049909DF81E30002BDAD00DF11F01207AFCF7AF
S2140049A06BFE9DF81F100029D1D12246207AFFF712
S2140049B01BFFCCE71746D0E7E9470000002808DBD6
S2140049C00123420900F01F0003FA00F0014B43F8F0
S2140049D02200704700E100E0002809DB01224309BD
S2140049E000F01F0002FA00F0024A603342F823008B
S2140049F0704700BF00E100E070B504460568FFF7A9
S214004A00DDFE844202D10020FFF7CCFE95F9360089
S214004A10FFF7E2FF95F93630002B0DDB01215A092E
S214004A2003F01F0301FA03F31849203241F822303D
S214004A30BFF34F8FBFF36F8F95F93700FFF7CCFFAB
S214004A4095F93730002B0DDB01215A0903F01F03BF
S214004A5001FA03F30D49203241F82230BFF34F8F9D
S214004A60BFF36F8F287AFCF7E7FD287AFCF74AFD3C
S214004A70FCF726FD00232846C4E90033C4E90433C6
S214004A80A360AB6ABDE87040184700BF00E100E0D5
S214004A902DE9F0410C461546064686B04022002118
S214004AA020461F4625F0E7FA95E8030000232A690A
S214004AB02376EB6884E80300C4E904232A7DE360D8
S214004AC084F82C20AA7D2363012384F8343084F8EC
S214004AD035300C9B84F82D2023620D9BE7616362C2
S214004AE00E9BA3622B7A84F836306B7A84F83730C4
S214004AF02D4B346073602D4BB3602D4B33612D4BC3
S214004B0073612D4BF360FCF723FD38B12B4B9842B5
S214004B1004D01024204606B0BDE8F081002104F140
S214004B200800FCF79DFC07460028F2D14FF001086C
S214004B30234B3362234B84F83C80B361224BF361F2
S214004B409DF8403084F8390084F83B309DF83C30BE
S214004B50204684F83A30697D84F838801BF08DFA58
S214004B6095F90900FFF738FF95F90900FFF726FFCA
S214004B70164B0494CDE902732369CDE9008363687C
S214004B80E2682168207A1AF052FB04460028C0D159
S214004B9095F90800FFF720FF95F90800FFF70EFFCC
S214004BA03046FFF7FFFDB5E7CB0002004D4800009A
S214004BB0490002004F000200F9490000038000F09F
S214004BC01F0002007B00020055000200E9470000BB
S214004BD02DE9F04101271C46594B86B00293594BEC
S214004BE00C9D0193584B904600930A46CDE90377F7
S214004BF02946564BFFF74CFF064600287BD1236814
S214004C0039462B6463683A206B64637A85F84930CA
S214004C10237A85F84830E37A85F84B30A37A85F80E
S214004C204A30637B85F84D30237B85F84C30E37B38
S214004C3085F84F30A37B85F84E30FDF741F83B46AC
S214004C400422617A207AFDF77FFD3B460222E17A54
S214004C50A07AFDF779FD39466068FDF731F888F8E7
S214004C60006041462068FDF79BFF1422637C5B01D1
S214004C7003F1A04303F57033C3F81C26617A227A49
S214004C8042EA0142C3F83426E17AA27A42EA0142B5
S214004C90C3F82C2685F8506098F81930032B4DD8A9
S214004CA0DFE803F01A022D470123002785F850306D
S214004CB000230222617B207BFDF746FD637B227B7F
S214004CC0617C42EA0342224B49015A50042223687F
S214004CD003F58053DA65AFB9237A2A6C85F8483035
S214004CE0637A052185F84930D36C206843F00403C5
S214004CF0D3641AF001FC304606B0BDE8F08102230A
S214004D0085F8503000230422E17BA07BFDF71CFDD4
S214004D10022741F21C61627C0E4B03EB42104750A7
S214004D20E07BA17BB13241EA004103EB421399607C
S214004D30D2E70323012785F85030B9E72326DAE7C0
S214004D40F5010200E901020081020200750202007C
S214004D5024D6035000C00350BFF35F8F074B5A6A38
S214004D6022F480325A62D3F8942022F00102C3F86B
S214004D709420BFF34F8FBFF36F8F704700ED00E0B6
S214004D8070B52648264CFFF7E7FF844208BF4FF071
S214004D908043244A18BF20F01F03D2F8C01018BF63
S214004DA0203B21F0FF0141F0A001B3F1005FC2F803
S214004DB0C0100CD31C4D1D4E296843F00103C2F8E9
S214004DC098100131C2F89C60C2F8A0302960844275
S214004DD010D01548164B0268124923F01F0343F003
S214004DE00303C1F89820C1F89C30124B0132C1F879
S214004DF0A0300260BFF35F8F05220A4BC3F89420F1
S214004E005A6A42F480325A62BFF34F8FBFF36F8FF5
S214004E10BFF34F8FBFF36F8F70BD00BFA00D002094
S214004E20780F002000ED00E0181E00200300002090
S214004E30970F0020E1FFFF3FF8B51446FFF78CFF01
S214004E401F2C27D90027C2062A4D1CBF20F01F00A2
S214004E5020302A68CB06284B18BF21F01F01FCB271
S214004E60A24219D8D3F8C04020F01F0024F47F4493
S214004E7044F4807421F01F01C3F8C04040F00300E2
S214004E80C3F8982041F003010132C3F89C00C3F830
S214004E90A0102A6000201AE0C3F89840D3F89C407F
S214004EA0D3F8A06024F01F04A04226F01F0601D10C
S214004EB0B142EFD0B04201D8A14207D2D3F8984011
S214004EC0013724F0FF04C3F89840C8E72820BFF352
S214004ED05F8F0522084BC3F894205A6A42F480324A
S214004EE05A62BFF34F8FBFF36F8FBFF34F8FBFF37F
S214004EF06F8FF8BD181E002000ED00E0BFF34F8F47
S214004F000549064BCA6802F4E0621343CB60BFF360
S214004F104F8F00BFFDE700BF00ED00E00400FA057C
S214004F20054B1A782AB95B78002B14BF02200320A1
S214004F3070470120704700BF8B2B00200329F8B56F
S214004F4098BF124B05460E468CBF00245C5C0328B7
S214004F5005D8DFE800F002080B0E44F002040C4B04
S214004F601F684FB9F8BD44F00804F8E744F0200481
S214004F70F5E744F08004F2E77B681A68144203D031
S214004F80314628465B6898473F68EAE7A0AB0200D0
S214004F90401E002038B5104D2B78ABB10F4C23784F
S214004FA01BB100F08BFB0023237000201BF0D2F90E
S214004FB00B4C50B100F0D4FB0023012120782B705D
S214004FC0FFF7BCFF0123237038BD0122054B1A7082
S214004FD02278054B1A70F7E78A2B0020852B0020D5
S214004FE0832B0020892B0020902B002010B51AF070
S214004FF052FA064B04461B781BB1BDE810401AF067
S2140050004EBAFFF7C7FF2046F7E700BF842B002005
S214005010002814BF0121FF21074A13780B441370A0
S21400502008D0064B1B78012B04D9054B1B780BB90F
S214005030FFF7B0BF704700BF8B2B0020832B0020EC
S214005040892B002070B51AF026FA124E05463378E2
S2140050509BB900F0B9FC044620B128461AF01FFAA6
S214005060204670BD0C481AF04AF800F013FF0B4BB0
S2140050701C6000F06DFD0A4B186000F009FA1BF08A
S2140050806BF9084B002418600123284633701AF089
S21400509006FAE5E7862B0020401E0020481E00206A
S2140050A0441E00203C1E002000292DE9F34114BFB9
S2140050B00121FF21254A00F1FF30135C0B441354F5
S2140050C03AD0234E3178012936D9FFF729FF012837
S2140050D0044634D81F4F1AF0DEF93B781BB31E4D3A
S2140050E02B781BB901222A701C4A1370DFF87080D7
S2140050F098F8003033B1019000F0E0FA00230198F0
S21400510088F800301AF0CBF901201BF023F91AF0CA
S214005110C2F92B782BB1019000F022FB00230198F6
S2140051202B7000233B701AF0BAF93078A04203D0F7
S2140051302146FFF703FF347002B0BDE8F081032973
S214005140F3D10228F1D11BF00BF9EEE78B2B0020F0
S214005150832B00208A2B0020842B0020892B002004
S214005160852B002010B504461AF095F9002C14BFC4
S2140051700121FF21064A13780B44DBB21370B3FA01
S21400518083F3BDE81040034A5B0913701AF087B931
S2140051908E2B00208D2B002068B51AF07CF9094B69
S2140051A006461B78012B04D81AF079F90025284604
S2140051B068BD054B1D6800F01DFB054430461AF01F
S2140051C06EF9F4E7832B0020481E002038B54160B6
S2140051D004461AF060F905462146044819F092FF85
S2140051E02846BDE838401AF05AB900BF401E0020D5
S2140051F0054B1B685843054B00F5742000F23F2012
S214005200B0FBF3F0704700BF441E002040420F0082
S2140052102DE9FF47EFF3108672B600E000BF19F0E5
S214005220DBFE002800F09B80704D714F2B7823B179
S2140052300020FFF7EDFE00232B70FFF771FE0446FB
S214005240002800F09380841EE4B2012C40F2968081
S214005250FFF766FE0128804604D9664B1B780BB91B
S21400526000F0BCF9644CDFF8B0912078DFF8ACA110
S21400527040450AD0002389F800309AF8003013B968
S2140052804146FFF75BFE84F8008099F800303BB19A
S2140052902378022B04D1002389F8003024F02DFB5C
S2140052A0B8F1010F0FD9DFF84C8198F8003053B9E8
S2140052B0524B1B7823B900F0FBF90122504B1A70B1
S2140052C0012388F80030207800F07EFA9AF8003043
S2140052D013B14C4B1B78237000E000BF06B962B6D2
S2140052E0EFF3108672B6484B1A7852B100221A7045
S2140052F0444B20781B78984203D101212170FFF798
S2140053001DFE384600F09AFB19F071FE8046002814
S2140053108CD1384F89F800003B789BB1DFF8E090DD
S2140053208AF8000099F800301BB100F0C7F989F838
S214005330008000201BF00EF800284ED000F010FA77
S21400534000233B702B7823B10020FFF761FE00237B
S2140053502B7000212078FFF7F1FD0023237000E07A
S21400536000BF06B962B604B0BDE8F0872B78002B04
S2140053703FF46EAFFFF74CFE2C7069E7002003A9E0
S21400538000F0A0FB044600287FF462AF1F4B039A90
S2140053901B689A4205D80120FFF73AFE01232B70BE
S2140053A056E71B4BD3F8008000F024FA039B80449A
S2140053B09845F0D200F036FA00280CBF00230423EC
S2140053C0039943F00203CDE9004338462346114AC9
S2140053D0A1EB08011AF0C5FF3AE7012000F0F4F946
S2140053E006B962B6EFF3108672B6A2E78F2B0020DE
S2140053F01C1E00208A2B0020832B00208E2B0020D2
S214005400852B0020902B0020882B00203C1E00209F
S214005410481E0020ED4F00008D2B0020892B002019
S21400542010B51AF038F80022044B1C781A701AF0DF
S21400543036F800F075FC2043C0B210BD872B002064
S21400544073B5114E04463378834212D000238DF88C
S214005450043080B102238DF8053001A8FCF7C6FFA2
S2140054600A4D402054B1FFF7C3FE2B68181A286077
S214005470347002B070BD8DF80500EEE7FFF7B8FE99
S2140054802B681844F3E700BF820D0020901E002012
S21400549073B5002401A88DF80440FDF759F820469E
S2140054A0FFF7CEFF414A4249136F424803F0070315
S2140054B00B60D2F80011404D01F0030101604FF47B
S2140054C000203E49032B48664FF40030486601F53D
S2140054D098318969C1F3400129705ED0D2F8203135
S2140054E003F00303981E43424341D2F82421344C70
S2140054F002F00702022A08BF43F001034FF4C87007
S2140055002370FFF775FE2F4B2F4A18600A23166884
S2140055102E49013B13F0FF0341F8040BF9D100EBD1
S214005520C003304418442B781060294D6BB32378A1
S2140055301E4A3BB9D2F8003103F00303591E4B4212
S2140055404B412370D2F8003103F00303022B26D020
S214005550032B27D0012B18D1FBF7DEFDA8B11D4B7E
S214005560411EDC680023024608461946C4F30B04B5
S214005570194E013404EB8404E4FB060118F0DAFA51
S214005580FFF736FE2B68184428601F20FFF730FE12
S2140055902B681844286002B070BD0123A5E7FBF70E
S2140055A0D5FDDBE719F0A3FDD8E700BF008000506B
S2140055B0581E00204C1E0020922B00200090005009
S2140055C0952B00208C1E0020601E0020641E0020EC
S2140055D0901E002000C0015040420F00074A0849B4
S2140055E0D2F8203103F003030B60D2F82431054AC9
S2140055F003F00703136019F060BF00BF008000507F
S214005600501E0020541E00200E4B1A78C2B10022F5
S2140056101A700D4B1A6F22F0070242F001021A6749
S214005620D3F8202142F00302C3F82021D3F8242126
S21400563022F0070242F00302C3F82421FBF756BD0E
S214005640704700BF932B00200080005008B5134B16
S2140056501B7813B302201AF0E5FEF0B100F064FAEE
S214005660D8B10F4B9A6DD10302D5DA6D920714D4D8
S2140056709B6DDB0711D401220A4B1A701AF0B1FE9B
S214005680094B0A4A1860136F23F0070343F003031D
S2140056901367BDE80840FBF729BD08BD952B002021
S2140056A000C00050942B00205C1E0020008000509C
S2140056B00122014B1A707047932B0020F8B51F4B40
S2140056C01B78002B39D01E4C2378B3B91D4B9A6D2E
S2140056D0D10302D5DA6D92072FD49B6DDB072CD44D
S2140056E01AF07FFE184B194A1860136F23F0070351
S2140056F043F003031367FBF7F9FC1AF072FE124B34
S214005700134D1B68134EC01A2B78134F56F82320E0
S21400571046F82300111A3A681048521A0A213A60CD
S2140057200932B2FBF1F20133DBB20260B3FBF1F2F5
S21400573001FB12332B7000232370F8BD952B00203D
S214005740942B002000C000505C1E002000800050FB
S214005750912B0020641E0020601E00208C1E00205E
S21400576008B519F0ACFE124B12491A6F096822F000
S21400577007020A431A671049D3F82021096822F065
S21400578003020A43C3F820210C49D3F824210968F0
S21400579022F007020A43C3F82421094B1B7813B1F1
S2140057A00122084B9A62BDE80840FBF79FBC00BF89
S2140057B000800050581E0020501E0020541E00205E
S2140057C0952B002000E0005002280AD003280BD0BA
S2140057D001280CD1064A136923F00403136130BF75
S2140057E070470020FCF70EBE0020FCF72FBE704767
S2140057F000ED00E0054B1B781BB1054B1B6803EB67
S214005800D303044A10681844704700BF952B002045
S2140058108C1E0020901E00200122014B1A7070473B
S214005820952B0020014B1878704700BF952B002061
S21400583010B51AF0E4FD0A4C0A4B19682368C31A1F
S21400584001B10BB9206010BD4A699A423ABF9B1A53
S2140058500022D21A4A6128BF00238968F0E700BFF9
S214005860941E0020A01E0020C38870B504460D4676
S2140058703BB9FFF791FC8542064602D21AF05DFD61
S21400588035460F4965610B68ABB90C60A36011E043
S214005890AD1A9A68184665612AB113465A69AA4233
S2140058A0F6D950B11A4613468460A36013B15969FD
S2140058B0491B596170BD0020F0E70C60F5E700BF9A
